:10000000FC7F0020313E0000353D0000353D000002
:10001000353D0000353D0000353D0000353D000018
:10002000353D0000353D0000353D0000353D000008
:10003000353D0000353D0000353D0000353D0000F8
:10004000353D0000353D0000353D0000353D0000E8
:10026000353D0000353D0000353D000081B0874937
:1002700000EA0101084639E18549096841F00102B7
:1002800083490A6083490A686FF001010A40814985
:100290000A6087E17E49096841F001027C490A60F1
:1002A0007C49096841F001027A490A607AE178499B
:1002B000096841F0020276490A6076490A686FF0DF
:1002C00002010A4073490A606CE17149096841F012
:1002D00002026F490A606F49096841F002026D49E4
:1002E0000A605FE16A49096841F0040268490A60EE
:1002F00068490A686FF004010A4066490A6051E1E2
:100300006349096841F0040261490A60614909686A
:1003100041F004025F490A6044E15D49096841F027
:1003200008025B490A605B490A686FF008010A40ED
:1003300058490A6036E15649096841F008025449B3
:100340000A605449096841F0080252490A6029E1EB
:100350004F49096841F010024D490A604D490A6849
:100360006FF010010A404B490A601BE148490968D7
:1003700041F0100246490A604649096841F01002FE
:1003800044490A600EE14249096841F020024049AF
:100390000A6040490A686FF020010A403D490A603E
:1003A00000E13B49096841F0200239490A603949B6
:1003B000096841F0200237490A60F3E034490968CE
:1003C00041F0400232490A6032490A686FF0400148
:1003D0000A4030490A60E5E02D49096841F04002D1
:1003E0002B490A602B49096841F0400229490A60FB
:1003F000D8E02749096841F0800225490A6025496B
:10040000096801F07F0223490A60CBE020490968AE
:1004100041F080021E490A601E49096841F08002CD
:100420001C490A60BEE01A49096841F48072184903
:100430000A6018490A686FF480710A4015490A6019
:10044000B0E01349096841F4807211490A6011490A
:10045000096841F480720F490A60A3E00C490968F9
:1004600041F400720A490A600A49096841F40072BD
:1004700008490A6096E00649096841F48062044927
:100480000A600449096841F4806205E000F0FFFF5A
:1004900008E60F406CE00F4043490A6082E04349A0
:1004A000096841F4006241490A603F49096841F422
:1004B00000623D490A6075E03C49096841F4805298
:1004C0003A490A603849096841F4805236490A605D
:1004D00068E03649096841F4005234490A603249FB
:1004E000096841F4005230490A605BE0B0F1402FE6
:1004F0003FF4C2AE2E4988423FF4CCAE2D4988422B
:100500003FF4D5AE2C4988423FF4DFAE2B498842F8
:100510003FF4E8AE2A4988423FF4F2AE29498842C6
:100520003FF4FBAE284988423FF405AF2749884293
:100530003FF40EAF264988423FF418AF2549884260
:100540003FF421AF244988423FF42BAF234988422E
:100550003FF434AF224988423FF43EAF21498842FC
:100560003FF447AF204988423FF450AF1F498842CB
:100570003FF459AF1E4988423FF463AF1D4988429A
:100580003FF46CAF1C4988423FF475AF1B49884269
:100590003FF485AF1A4988423FF48EAF194988422B
:1005A0003FF497AF01B070476CE00F4008E60F4092
:1005B0000080054000500040009005400060004071
:1005C00000A005400070004000B00540004002401F
:1005D00000C005400050024000D0054000600240CD
:1005E00000E005400070024000F0054000D00340EC
:1005F0000000064000100640002006400030064083
:10060000004006400050064082B0CDF800E01FFADE
:1006100083F9CBB2D5B29DF80870CC4C00EA040443
:10062000A0462046FFF722FE3DB908F58066DD436F
:10063000EDB234682C40346006E0012D04D108F599
:1006400080652C681C432C6009F00104A4B22CB115
:1006500008F5A2652C681C432C6006E008F5A2662C
:10066000DD43EDB234682C40346009F00204A4B2DA
:100670002CB108F214552C681C432C6006E008F2DB
:100680001456DD43EDB234682C40346009F00804A0
:10069000A4B22CB108F20C552C681C432C6006E067
:1006A00008F20C56DD43EDB234682C40346009F09A
:1006B0001004A4B22CB108F5A0652C681C432C6072
:1006C00006E008F5A066DD43EDB234682C403460E6
:1006D00009F02004A4B22CB108F204552C681C4384
:1006E0002C6006E008F20456DD43EDB234682C407D
:1006F000346009F04004A4B22CB108F5A1652C685F
:100700001C432C6006E008F5A166DD43EDB23468B9
:100710002C40346009F08004A4B264B109F04004B4
:10072000A4B22CB108F5A3652C681C432C6001E031
:10073000012007E106E008F5A366DD43EDB2346869
:100740002C40346009F48074A4B22CB108F21C551A
:100750002C681C432C6006E008F21C56DD43EDB209
:1007600034682C40346009F40074A4B2002C3DD0ED
:10077000774CA04540F2000500D00125EDB2754C44
:10078000A04540F2000400D00124E4B22540EDB2BF
:10079000714CA04540F2000400D00124E4B2254091
:1007A000EDB26E4CA04540F2000400D00124E4B24A
:1007B0002540EDB26A4CA04540F2000400D001246F
:1007C000E4B22540EDB2674CA04540F2000400D0F1
:1007D0000124E4B205EA0404E4B20CB10120B1E062
:1007E00008F5A5652C681C432C603CE0584CA045DE
:1007F00040F2000500D10125EDB2564CA04540F273
:10080000000400D10124E4B22543EDB2524CA045CE
:1008100040F2000400D10124E4B22543EDB24F4C74
:10082000A04540F2000400D10124E4B22543EDB21A
:100830004B4CA04540F2000400D10124E4B2254312
:10084000EDB2484CA04540F2000400D10124E4B2CE
:1008500045EA0404E4B234B108F5A566DD43EDB21F
:1008600034682C40346009F40064A4B22CB108F55B
:10087000A6652C681C432C6006E008F5A666DD43DF
:10088000EDB234682C40346009F48064A4B22CB119
:1008900008F584652C681C432C6006E008F5846626
:1008A000DD43EDB234682C4034600FB9002049E0DC
:1008B0000B2F01D9012045E0002100200191DAB27F
:1008C000C3B24046F9B2019F082B12D222FA03F4B8
:1008D000E4B204F00104E4B244B19D002DB24FF043
:1008E0000F04AC4047EA04052F46FFE75B1CDBB270
:1008F000EAE700F22C56FD4334682C4034600026B1
:1009000000238DF80420CAB29DF80410082B13D2DE
:1009100021FA03F4E4B204F00104E4B24CB1D5B21C
:100920009C0024B205FA04F446EA040425462E4647
:10093000FFE75B1CDBB2E9E700F22C552C6834437F
:100940002C600020DDF800E002B0704700F0FFFFEF
:1009500000700040004002400050004000B00540E0
:1009600000C005400090054040F21707C0F20007A4
:100970007F1EFDD100BF00BF00BF00BF704781B028
:10098000CDF800E0002410B4FFF73EFE01B0DDF822
:1009900000E001B07047FFFF81B000235BB2054962
:1009A0000B6005490870054A1360012149B21160C6
:1009B00001B070479C7F4C42FCD30340907F4E4275
:1009C00081B0CDF800E0002464B20B4B1C60012222
:1009D00052B20A490A600A490A600A4908700A497B
:1009E0000C600A601A60FFF7BFFFFFF7BDFFDDF87C
:1009F00000E001B0704700BF987F4E42947F0C42E8
:100A00009C7F4C42FCD30340907F4E4281B0CDF896
:100A100000E0FFF7A9FFFFF7A7FF002464B2094B2E
:100A20001C60012252B208490A6008490C6008495A
:100A3000087008490C600A601A60DDF800E001B037
:100A4000704700BF987F4E42947F0C429C7F4C427F
:100A5000FCD30340907F4E4281B001235BB2054935
:100A60000B6005490870002252B204490A600B600D
:100A700001B070479C7F4C42FCD30340907F4E42B4
:100A800085B0CDF800E0154D0346002922D904AC0D
:100A90000193ADF80810039522461846104C2468BF
:100AA000A047039DBDF80810019B04460020BDF837
:100AB0001020904206D222782A706D1C641C401CC3
:100AC00080B2F4E7BDF81020891A89B2BDF8102071
:100AD0009B18DAE7DDF800E005B07047260100203A
:100AE0003001002082B0CDF800E0ADF804200AB259
:100AF00001B2BDF80400002904DB134B1B889942A6
:100B000000D200E01BE0002A04DB104B1B889A4255
:100B100000D200E013E0002464B20D4B1C60ADF87D
:100B2000040088B291B20B4C2468A047BDF80400C1
:100B3000094C2468A047012464B2054B1C60DDF811
:100B400000E002B0704700BF020100200E0100204B
:100B5000987F4E42200100201801002081B03928E2
:100B600003D8302801D3012100E00021C8B201B030
:100B70007047FFFF81B06E282FD36421B0FBF1F1E5
:100B8000C9B2123109B28A002949891851ED000A07
:100B9000B6EE000A60EE200A6421B0FBF1F201FB20
:100BA0001202D2B20A21B2FBF1F1C9B2093109B283
:100BB0008A001F49891811ED000A60EE800A0A2296
:100BC000B0FBF2F102FB1101C9B28A001849891881
:100BD00011ED000A20EE800A27E00A281CD90A211C
:100BE000B0FBF1F1C9B2093109B28A001049891884
:100BF00051ED000AB6EE000A60EE200A0A22B0FBB0
:100C0000F2F102FB1101C9B28A000949891811EDFC
:100C1000000A20EE800A08E082000549891851ED9B
:100C2000000AB6EE000A20EE200A01B0704700BFAD
:100C3000DC60000081B0002857DA414248B249B276
:100C40006E292FDB642149B290FBF1F149B21231D8
:100C500009B28A005049891851ED000A642149B24D
:100C600090FBF1F201FB120252B20A2149B292FB4F
:100C7000F1F149B2093109B28A004749891811EDE9
:100C8000000A60EE800A0A2252B290FBF2F102FBE7
:100C9000110149B28A004049891811ED000A20EE7D
:100CA000800A76E00A281ADD0A2149B290FBF1F1A8
:100CB00049B2093109B28A003749891851ED000A51
:100CC0000A2252B290FBF2F102FB110149B28A00F2
:100CD0003149891811ED000A20EE800A59E082009E
:100CE0002D49891811ED000A53E06E282FDB64218D
:100CF00049B290FBF1F149B2123109B28A00274999
:100D0000891851ED000A642149B290FBF1F201FB10
:100D1000120252B20A2149B292FBF1F149B20931F1
:100D200009B28A001D49891811ED000A60EE800A97
:100D30000A2252B290FBF2F102FB110149B28A0081
:100D40001649891811ED000A20EE800A21E00A28D0
:100D50001ADD0A2149B290FBF1F149B2093109B219
:100D60008A000E49891851ED000A0A2252B290FBFE
:100D7000F2F102FB110149B28A000849891811ED0C
:100D8000000A20EE800A04E082000449891811ED6F
:100D9000000A01B0704700BFDC600000A8600000DE
:100DA00081B005490860054A116801B9FBE70249AD
:100DB000086801B0704700BF08A0004088011442D5
:100DC00081B005490860054A116801B9FBE702498D
:100DD000086801B0704700BF0890004088011242C7
:100DE00081B005490860054A116801B9FBE702496D
:100DF000086801B0704700BF08B000408801164283
:100E00004AF67F17C0F203077F1EFDD100BF00BF67
:100E100000BF00BF7047FFFF81B005490860054A69
:100E2000116801B9FBE70249086801B0704700BFCB
:100E300008800040880110424DF2BE47C0F2010711
:100E40007F1EFDD100BF00BF00BF00BF00BF00BFBD
:100E50007047FFFF81B0CDF800E047F20040C4F2D8
:100E600002004FF001014FEA411140F2401301220C
:100E7000C9B2FFF784FD002149B22B48016046F258
:100E80000040C4F202004FF001014FEAC11140F2EC
:100E900040130122C9B2FFF772FD012149B2234874
:100EA000016047F20040C4F202004FF001014FEA36
:100EB000811140F240130122C9B2FFF760FD012108
:100EC00049B21B48016046F20040C4F200004FF0F6
:100ED00001014FEA411140F240130122C9B2FFF76C
:100EE0004EFD47F20040C4F202004FF001014FEA0C
:100EF000011140F240130122C9B2FFF740FD012168
:100F000049B20C4801600C4801604DF20040C4F247
:100F1000030040F240130122FF21FFF730FDDDF80E
:100F200000E001B0704700BF947F4E429C7F4C426E
:100F3000987F4E42947F0C42907F4E42FFFFFFFF0E
:100F400049F6FF67C0F224077F1EFDD100BF00BF36
:100F500000BF00BF7047FFFF82B0CDF800E08DF802
:100F6000041000235BB2094A1360094C2468A047AF
:100F70009DF80400074C2468A04701235BB2034A94
:100F80001360DDF800E002B0704700BF987F4E426A
:100F9000100100201401002081B0BDF80450BDF8FC
:100FA0000860074C2070074C2180074C2270074CCA
:100FB0002370074C2580074C268001B0704700BF86
:100FC000010100200C010020060100200701002083
:100FD000080100200A01002082B0ADF804000126BB
:100FE00076B209490E6001AD691C0978074C217081
:100FF00000235BB2064A13601660297821701360E3
:10100000166002B0704700BF9C7F4C42FCD3034087
:10101000907F4E4281B0CDF800E085B2E90AC8B2B7
:10102000C100CEB2F109C9B2012902D1F11DC8B285
:1010300000E0F0B2FFF7C4FC6909C8B28100CEB28B
:10104000F109C9B2012902D1F11CC8B200E0F0B225
:10105000FFF7B6FCE900CDB2E909C9B2012902D116
:10106000E91DC8B200E0E8B2FFF7AAFCDDF800E035
:1010700001B0704786B0CDF800E00CB201B2A142D9
:1010800004DD88B221B203B218B200E020B2002918
:1010900002DA002109B204E02F4B1B88994200D3E9
:1010A00055E0002800DA52E02B4B1B88984205D30C
:1010B000294B1B885B1E18B203B200E003B201206B
:1010C00015B20AB219B2254B1B7898423FD8C4B268
:1010D00004F001031BB213B9644224B2FFE76310AA
:1010E0001BB21EB2EB181BB2002B06DBAC1924B2EC
:1010F0001B4B1B889C4200D200E025E097B28F4238
:1011000022D8184B1C88AB198DF80400ADF80810D4
:10111000ADF80C20ADF81050ADF81260ADF81470B9
:10112000A2B239B218B2FFF7DDFCBDF81470BDF9F8
:101130001260BDF91050BDF90C20BDF908109DF8E2
:1011400004007F1CBFB2DAE7401CC0B2BBE7DDF889
:1011500000E006B0704700BF0E0100200001002033
:10116000020100200401002085B0CDF800E0ADF8B8
:101170000C1001B2ADF81020BDF90C30994205DD1C
:1011800088B2BDF90C10ADF80C00FFE7002903DAB6
:10119000002109B208B205E03A4B1B88994200D3FE
:1011A0006CE008B2BDF90C30002B00DA66E0354B7C
:1011B0001C88BDF90C30A34204D3324B1B885B1E44
:1011C000ADF80C3001238DF808302F4B1C789DF8BA
:1011D0000830A34252D89DF8084004F001031BB226
:1011E0001BB963421CB221B200E021B24C1024B200
:1011F00021B2BDF910301B191BB2002B08DBBDF961
:1012000010305C1824B2214B1B889C4200D201E0B4
:1012100002B22CE0002464B21D4B1C60BDF91030FA
:101220005C18ADF80400A1B280B21A4C2468A04743
:10123000BDF9040086B2B1B2BDF90C30994211D8A3
:10124000154B1C88ADF80400ADF80610A0B2134C85
:101250002468A047BDF80610BDF904004B1C9EB2DF
:10126000B1B2E9E7012464B2094B1C6002B29DF8F7
:1012700008305B1C8DF8083010B2A6E7DDF800E0FE
:1012800005B0704702010020000100200E0100207F
:10129000987F4E4220010020040100201801002008
:1012A00081B0C40AA4B2E4000C704409A4B2A40042
:1012B0001470C4001C7001B0704781B0C308DBB269
:1012C000DC02A4B28B08DBB25B019BB21C43A4B26C
:1012D000D308DBB244EA030398B201B07047FFFFC2
:1012E00089B0CDF800E040F2000636B2154602465D
:1012F00008460446471C23788DF80C30002B01F07B
:10130000A4819DF80C30252B07D09DF80C3013706C
:10131000521C761C36B23846EBE7002424B200207B
:101320001EE040F0080080B27B1C19460F4627E003
:1013300040F0010080B2791C0F4621E040F002002D
:1013400080B2791C0F461BE040F4006080B2791C2B
:101350000F4615E040F0040080B2791C0F460FE004
:101360003B782D2BDDD03B78202BE1D03B782B2B0D
:10137000E4D03B78232BE7D03B78302BEAD000E059
:10138000CEE700F002039BB233B14FF6FE73184074
:1013900080B21FFA80F801E01FFA80F808F0080315
:1013A0009BB233B14FF6FB7308EA03081FFA88F8C3
:1013B000FFE73B78D8B2FFF7D1FB28B3002000B29B
:1013C000394601E038B249460A231BB200FB03F458
:1013D00024B20B78E7183FB2303F3FB24B1C99461E
:1013E0001B78D8B2FFF7BAFB0028EBD1ADF8046048
:1013F000ADF8067017462E461FFA88F04946BDF92B
:101400000620BDF9045014E03B782A2B06D12C6845
:10141000231D2B60B4F90000791C01E0394620B28D
:10142000ADF80460174602B21FFA88F02E46BDF9E7
:1014300004500B782E2B45D14B1C98461B782A2B39
:1014400010D13468231D3360B4F9001008F1010392
:10145000ADF804202AB21D4633460EB23C46BDF913
:10146000041026E040F200090FFA89F91FFA80FA09
:1014700098F80030D8B2FFF771FB88B10A231BB28D
:1014800009FB03F424B298F8003004EB03090FFAC7
:1014900089F9A9F130090FFA89F908F10108E7E79C
:1014A00033460FFA89F611B22AB245463C461FFA76
:1014B0008AF0019585B230B20EB217B29846A146B5
:1014C00001990AE0002424B240F4805080B2B04672
:1014D00016B2B9462FB285B220B20C4601F1010A0C
:1014E00023788DF80C30CBE038B201F0AFB845F07E
:1014F0001005ADB25146F0E745F4806B1FFA8BFB47
:101500000DE145F0200189B200E0A9B241F4807BF1
:101510001FFA8BFB03E145F4007B1FFA8BFBFEE017
:1015200045F0400B1FFA8BFBF9E01FFA85FBF6E054
:1015300045F0200189B200E0A9B241F0800B1FFA0A
:101540008BFBECE0D8F80040231DC8F8003023687E
:1015500006930BB9FB4B06930023ADF81C30AAB2DF
:101560004D465146BDF81C40069B1B191B782BB1FC
:10157000BDF81C305B1CADF81C30F3E72C460D4663
:1015800039B207B290B242462FB1BDF81C309F422B
:1015900001D2ADF81C70BDF81C309E4204D9BDF8D4
:1015A0001C30F61A36B201E0002636B200F008030D
:1015B0009BB2ABB9274634B2761E36B22CB120238B
:1015C0003B707F1C491C09B2F5E7ADF8046002923C
:1015D0002A4685B208B23E460299BDF9047008E079
:1015E000ADF8040037B2264608B211462A46BDF8C7
:1015F0000450BDF81C40BDF81C305B1EADF81C301B
:101600004CB1069B1B783370761C069B5B1C0693C3
:10161000401C00B2EDE705F008039BB283B13DB278
:101620002CB26D1E2DB22CB120233370761C401CC1
:1016300000B2F5E70192324606B20D46019804E089
:10164000019606B210460D46019A52E6D8F80040BF
:10165000231DC8F80030B4F900308DF80C3003AB0E
:1016600006930123ADF81C3039B207B2A8B2554633
:101670004C46424688E745F0C00B1FFA8BFB4EE014
:101680009DF80C30002B3FF42FAF9DF80C306C2BE5
:101690003FF42DAF9DF80C304C2B3FF428AF9DF854
:1016A0000C30662B3FF428AF9DF80C30452B3FF4EF
:1016B00028AF9DF80C30652B3FF427AF9DF80C3018
:1016C000672B3FF428AF9DF80C306F2B3FF428AF09
:1016D0009DF80C30642B3FF428AF9DF80C30692B3B
:1016E0003FF423AF9DF80C30702B3FF421AF9DF8F1
:1016F0000C30582B3FF41CAF9DF80C30782B3FF486
:101700001BAF9DF80C30732B3FF41CAF9DF80C30D1
:10171000632B9BD09DF80C30752BACD09FE70BF45E
:10172000E0639BB2002B00F035850BF480539BB235
:1017300023B1062000B20FFA80FC01E00FFA80FC12
:10174000D8F80040231DC8F8003014ED000A8DEDD4
:10175000040AB5EEC00AF1EE10FA0ADA9DED040AA9
:10176000B1EE400A8DED040A4BF0030B1FFA8BFB20
:10177000FFE700231BB2ADF814309DED040AB5EE6F
:10178000C00AF1EE10FA4AD005AC04AB1B68DB0DC1
:1017900003F0FF037E3B2380BDF914305C1E24B2AE
:1017A000ADF8144003231BB25C4324B2ADF81440DF
:1017B0000A231BB294FBF3F31BB2ADF81430002BD9
:1017C00004DABDF914305B1EADF81430BDF91430E5
:1017D0005B4258B2FFF72EFADDED040A20EE800AD4
:1017E0008DED060ADDED060AB7EE000AF4EEC00A3A
:1017F000F1EE10FA05DABDF914305B1EADF81430C5
:101800000DE0DDED060AB2EE040AF4EEC00AF1EED8
:1018100010FA04DBBDF914305B1CADF81430BDF9CF
:101820001430002B03DC01238DF80C3003E0BDF9EC
:1018300014308DF80C300BF480739BB283B90BF429
:1018400000739BB25BB1BDF914406FF003039C427F
:1018500004DBBDF91430634500DA00E000E045E246
:10186000BCF1000F09D00BF400739BB233B1ACF1A3
:10187000010000B20FFA80FCFFE7FFE71FFA8CF3CC
:10188000082B03D908238DF80C3001E08DF80CC02B
:101890009DED040AB5EEC00AF1EE10FA6FD0BDF965
:1018A0001400FFF7C7F9DDED040A80EE800A8DED24
:1018B000040A9DF80C305B4258B2FFF7BBF9DDED2E
:1018C000040AC0EE800ACDED040ABCEE600A10EEF8
:1018D000103A00EE103AB8EE400A70EEC00AB6EECA
:1018E000000AF4EEC00AF1EE10FA07DBDDED040A9F
:1018F000B6EE000A30EE800A8DED040A9DED040A72
:10190000BCEE400A10EE105A9DF80C305B1C1BB266
:101910009C000D4B1B191B689D420ED3DDED040A84
:101920000A4B00EE103A20EE800A8DED040ABDF954
:1019300014305B1CADF8143021E09DED040ABCEEC0
:10194000400A05E0CA00002040610000CDCCCC3D3B
:1019500010EE105A9DF80C309C00FA4B1B191B68B6
:101960009D420CD2DDED040AB2EE040A20EE800A9C
:101970008DED040ABDF914305B1EADF814300BF484
:1019800000739BB2002B41D00BF400639BB2002B81
:1019900045D1BCF10A0F04DD0A2000B20FFA80FC29
:1019A000FFE79DED040ABCEE400A10EE103A0693E4
:1019B000069B83B1069D0A24B5FBF4F304FB135385
:1019C0004BB9ACF1010C0FFA8CFC069C0A23B4FB5A
:1019D000F3F30693ECE79DF80C309C450EDA9DF886
:1019E0000C30A3EB0C0358B2FFF724F9DDED040A29
:1019F00080EE800A8DED040A8DF80CC033B24446A7
:101A000052461FFA8BF00FFA8CF106E00FFA8CF1B8
:101A10001FFA8BF05246444633B21DB206E00FFA6D
:101A20008CF11FFA8BF05246444635B24B1D1BB267
:101A3000ED1A2DB221B900F400639BB203B901E0A5
:101A40006D1E2DB200F003039BB213B16D1E2DB2BB
:101A5000FFE700F004039BB2002B39D000F0020333
:101A60009BB27BB100F001039BB20BB12D2300E0D0
:101A70002B2389F8003009F101067B1C1BB2374685
:101A80001EB210E000F001039BB243B1202389F89D
:101A9000003009F101067F1C3FB23BB201E03BB2CE
:101AA0004E4637461EB2002D07DD30233B707F1CAB
:101AB000761C36B26D1E2DB2F5E7ADF80410114656
:101AC0002AB2B84637B286B22046BDF9045047E084
:101AD00000F008039BB2B3B93EB24F46002D07DDBC
:101AE00020233B707F1C761C36B26D1E2DB2F5E7AD
:101AF0000194ADF8085035B286B208B21446BDF96B
:101B00000810019A07E0019286B208B229B23DB2EC
:101B10004F462246019C06F002039BB26BB106F0D1
:101B200001039BB20BB12D2300E02B233B707F1CE4
:101B30006B1C1BB2B8461FB20EE006F001039BB24D
:101B40003BB120233B707F1C6D1C2DB23B462FB256
:101B500001E03B462FB2984605B210460AB2214634
:101B60009DED040ABCEE400A10EE103A06939DF873
:101B70000C309C00734B1B191C68069BB3FBF4F3E1
:101B8000303388F8003008F101087C1C24B22DB9EC
:101B900006F400639BB20BB9454643E02E2388F858
:101BA000003008F1010904F101080FFA88F89DF8E6
:101BB0000C30EC1A24B2B7B20E4611B2024620B273
:101BC0009DF80C30DBB19DF80C305B1EDBB28DF85C
:101BD0000C309C005B4B1B191C68069BB3FBF4F597
:101BE0000A24B5FBF4F304FB1353303389F80030B7
:101BF00009F1010908F101080FFA88F8E0E704B2D9
:101C000010460AB23146BEB24F460FFA88F53CB1D3
:101C100030233B707F1C6D1C2DB2641E24B2F6E78E
:101C20002CB23D4606F020039BB22BB145232B700E
:101C30006D1C641C24B204E065232B706D1C641CB5
:101C400024B2BDF91430002B0ADABDF914305B421E
:101C5000ADF814302D232B706F1C651C2DB204E0E1
:101C60002B232B706F1C651C2DB2BDF914400A2369
:101C70001BB294FBF3F31BB230333B707B1C9846D2
:101C80006F1C3FB2BDF914500A2424B295FBF4F343
:101C900004FB13531BB2303388F8003008F1010401
:101CA0007D1C2DB206F008039BB29BB1002A17DD04
:101CB000ADF8045015B2BDF90420FFE720232370CE
:101CC000641C521C12B26B1E1BB21DB2002BF5D14C
:101CD000234601E02AB22346054616B21A4602E020
:101CE0002EB2054622460846FFF703BB0BF40073ED
:101CF0009BB2002B00F07480BDF91430002B07DA82
:101D0000BDF914305B1E1BB2ACEB030000B201E066
:101D10000FFA8CF09DED040ABCEE400A10EE103A6A
:101D2000069301238DF80C301FFA8BF59DF80C30CB
:101D30000A2B13D09DF80C309C00024B1B191C6819
:101D400000F002B840610000069BA34200D205E00B
:101D50009DF80C305B1C8DF80C30E7E79DF80C30DB
:101D6000C41A0FFA84FB9DED060AF8EE400A9DEDB9
:101D7000040A30EE600A8DED080A60B2FEF75AFFE1
:101D8000DDED080A60EE800AB6EE000A30EE800A49
:101D9000BCEE400A10EE103A069339B2AFB230B240
:101DA0004E4642460FFA8BF8B8F1000F10D0069D50
:101DB0000A24B5FBF4F304FB13534BB9069C0A2326
:101DC000B4FBF3F30693A8F101080FFA88F8EBE7E8
:101DD000B14606B2BDB20FB20FFA88F4904603E0E6
:101DE0001FFA8BF50FFA8CF40C2C08DCE0B2FEF72E
:101DF000C1FEDDED040A30EE800A8DED040A9DED92
:101E0000040AB5EEC00AF1EE10FA39D09DED040ACD
:101E1000BCEE400A10EE103A93BBBDF91430012B12
:101E20002EDDBDF91400FEF705FFDDED040AC0EE5E
:101E3000800AFA4B00EE103AF4EEC00AF1EE10FA06
:101E400005DABDF91430093BADF8143004E0BDF9F2
:101E50001430083BADF81430BDF91400FEF7EAFE6B
:101E6000DDED040A80EE800ABCEE400A10EE103A66
:101E700006934FF0000300EE103A8DED040A14E0D3
:101E80009DED040ABCEE400A10EE103A06939DED5B
:101E9000060AF8EE400A9DED040A30EE600A8DED68
:101EA000040A00231BB2ADF8143001238DF80C3066
:101EB00022B2514640460FFA86F83EB24F469DF890
:101EC0000C300A2B0FD09DF80C309C00D44B1B1902
:101ED0001C68069BA34200D205E09DF80C305B1CF9
:101EE0008DF80C30EBE79DF80C30D41824B2BDF916
:101EF0001430E3181BB2A8EB030424B205F400630A
:101F00009BB20BB902B901E0641E24B205F00303D1
:101F10009BB213B1641E24B2FFE705F004039BB229
:101F2000002B32D005F002039BB25BB105F0010338
:101F30009BB20BB12D2300E02B233B707F1C761C42
:101F400036B20FE005F001039BB23BB120233B709A
:101F50007F1C761C36B233B23E4601E033B23E46B9
:101F600037461EB2002C07DD30233B707F1C761CE9
:101F700036B2641E24B2F5E70190B94627B20FFAD3
:101F800086F8AEB210B2019A42E005F008039BB2A7
:101F90008BB9002C07DD20233B707F1C761C36B2EA
:101FA000641E24B2F5E7ADF804400C46A9B205461C
:101FB000BDF9040004E00191A9B2054620B2019CDC
:101FC00001F002039BB263B101F001039BB20BB1BC
:101FD0002D2300E02B233B707F1C731C1BB23E465D
:101FE0000EE001F001039BB233B120233B707F1C54
:101FF000761C36B23B4600E03B46019333B2019E6D
:1020000007B210B22A46B1468EB221460FFA83F8C3
:102010009DF80C409DF80C305B1E8DF80C30BCB167
:102020009DF80C309C007E4B1B191C68069BB3FB73
:10203000F4F50A24B5FBF4F304FB1353303389F8A9
:10204000003009F1010908F101080FFA88F8DFE70B
:102050000D461446CA460FFA88F9BDF91430002B14
:102060000EDD30238AF800300AF1010A09F1010976
:102070000FFA89F9BDF914305B1EADF81430ECE7A6
:10208000082803DD08238DF80C3001E08DF80C00E2
:102090009DF80C30C31A0FFA83F89DF80C3023B961
:1020A00006F400639BB203B90AE02E238AF80030DD
:1020B0000AF10103184609F101090FFA89F982466C
:1020C0009DF80C00FEF7B6FDDDED040A20EE800A57
:1020D000BDEE400A10EE103A069339B22746B2B26E
:1020E0002E460FFA88F00FFA89F8D1469DF80C3089
:1020F000DBB19DF80C305B1EDBB28DF80C309C0020
:10210000474B1B191C68069BB3FBF4F50A24B5FB6F
:10211000F4F304FB1353303389F8003009F101095B
:1021200008F101080FFA88F8E0E70DB2314606B26F
:1021300038464F4694B20FFA88F23EB130233B70D6
:102140007F1C521C12B2761E36B2F6E704F008036A
:102150009BB293B1002D16DD14B22AB23D46FFE7C3
:1021600020232B706D1C641C24B2531E1BB21AB2A8
:10217000002BF5D123B22A4601E013B23A460546B8
:102180001EB2134602E03B4616B205461A46084602
:10219000FFF7AFB80BF0C0039BB203BB0BF010030B
:1021A0009BB23BB1D8F80040231DC8F8003023682B
:1021B000069307E0D8F80040231DC8F80030B4F9B2
:1021C00000300693069B002B06DA4BF0030189B220
:1021D000069B5B42069301E01FFA8BF114E00BF0C3
:1021E00010039BB23BB1D8F80040231DC8F8003063
:1021F0002368069306E0D8F80040231DC8F8003095
:10220000238806931FFA8BF120B9069B1BB9401C4B
:1022100000B2FFE7FFE701F0C00303E05F70894011
:1022200040610000DDB250E001238DF80C309DF8D4
:102230000C300A2B0FD09DF80C309C00F24B1B1970
:102240001C68069BA34200D205E09DF80C305B1C85
:102250008DF80C30EBE702B288B2514640E0012322
:102260008DF80C309DF80C30082B0FD09DF80C30F9
:102270009C00E64B1B191C68069BA34200D205E09C
:102280009DF80C305B1C8DF80C30EBE702B288B285
:10229000514625E001238DF80C309DF80C300C2BB5
:1022A0000FD09DF80C309C00D94B1B191C68069B65
:1022B000A34200D205E09DF80C305B1C8DF80C3079
:1022C000EBE702B288B251460AE0002DACD0C02D37
:1022D000AAD0802DC3D0402DDCD002B288B25146A6
:1022E0009DF80C30934202DA8DF80C2006E09DF840
:1022F0000C309A4202DA9DF80C20FFE736B100F06C
:1023000003039BB223B1741E24B200E034B200E098
:1023100034B2944202DDA41A24B201E0002424B2B3
:1023200040F6C40300EA03039BB2B3F5046F04D183
:1023300014B1641E24B2FFE70EE000F40C639BB2FC
:10234000B3F5086F08D1022C02DDA31E1BB201E019
:1023500000231BB21CB2FFE700F004039BB2002B6A
:1023600000F06F8000F002039BB283B100F0010324
:102370009BB20BB12D2300E02B2389F8003009F12B
:10238000010507F1010A0FFA8AFA2B462BE000F04B
:1023900001039BB23BB1202389F8003009F101050C
:1023A0007B1C1BB21CE000F40C639BB2B3F5086FFE
:1023B00014D1302389F8003009F101067D1C2DB2BB
:1023C00000F020039BB20BB1582300E07823337058
:1023D000761C6B1C1DB22BB2354601E03BB24D465C
:1023E0000FFA83FA2B460CB385B20E4647460FFA16
:1023F00082F99B4602E00FFA8BF4E34630238BF818
:1024000000300BF101039C460AF1010A0FFA8AFA27
:10241000631E1BB20FFA83FB002BECD1A8B231462E
:102420000FFA89F20FFA8BF4634600E047460FFA81
:1024300084F91C461FFA80F810B20A460FFA8AF196
:102440006BE0BCB100F008039BB2BBB93EB24F4693
:10245000454601E00FFA88F420233B707F1C761C70
:1024600036B2631E1BB20FFA83F8002BF2D10FFABB
:1024700088F402E03EB24F46454602E03EB24F4687
:10248000454600F002039BB25BB100F001039BB232
:102490000BB12D2300E02B233B707F1C761C36B242
:1024A00009E000F001039BB22BB120233B707F1C9D
:1024B000761C36B2FFE700F40C639BB2B3F5046FF1
:1024C00006D130233B707F1C731C1BB23E461BE0C1
:1024D00000F40C639BB2B3F5086F11D130233B704D
:1024E0007F1C761C36B200F020039BB20BB1582340
:1024F00000E078233B707F1C761C36B23B4600E040
:102500003B46019333B2019E0FFA84F934461FFA19
:1025100080F810B20A4619B22F469DF80C30984246
:1025200005DD30232370641C491C09B2F5E705B2B0
:1025300008B221462CB26B1E0FFA83FA002C00F071
:10254000588008F0C003DEB242E04FEA8A042E4B06
:102550001B191C68069BB3FBF4F50A24B5FBF4F3C6
:1025600004FB135330338DF80C3039E008F02003AE
:102570009BB27BB14FEA8A04244B1B191C68069B53
:10258000B3FBF4F303F00F04224B1B191B788DF8F7
:102590000C300EE04FEA8A041C4B1B191C68069B8A
:1025A000B3FBF4F303F00F041B4B1B191B788DF8DE
:1025B0000C3015E04FEA8A04154B1B191C68069B6A
:1025C000B3FBF4F303F0070330338DF80C3007E06E
:1025D000002EBAD0C02EB8D0802EC7D0402EE9D061
:1025E0009DF80C300B70491C401C00B20FFA8AF5A4
:1025F000A0E708F008039BB2EBB1B9F1000F1EDDB4
:102600003D460FFA89F409E040610000686100006E
:10261000106100009961000088610000FFE720233D
:102620000B70491C401C00B2631E1BB21CB2002B75
:10263000F5D12B4600E03B4606B21D4601E03D4683
:1026400006B210460A46FEF754BE30B2DDF800E08E
:1026500009B070478BB0CDF800E040F20001ADF852
:10266000261000218DF82810AF490988884200D231
:1026700056E1AE490988884200D951E1AA49098842
:10268000411A89B28A0092B2A949096808318918A9
:1026900008460421FEF7F4F9A64803788DF82430A3
:1026A000411C0978CAB2811C0978090289B2521802
:1026B000C11C0978090489B252189D490968891812
:1026C0000491DA08D2B29C490988514389B2069133
:1026D0009DF8241001F00701C9B221B196490A887A
:1026E0000699891806910699089105AC2246069923
:1026F0000498924C2468A0470446059A04998918C6
:102700000491059A0699891A0691002107918C492E
:102710000978002940F082808A490988ADF80A10BA
:1027200000218DF8091084490A889DF8091091420A
:1027300080F06E8084490988ADF8261000218DF85C
:102740000C1000218DF808109DF824209DF8081029
:10275000914252D29DF80C1059BB0799491C079120
:10276000089A059991421AD2059A0799914214D96B
:102770000121079105AC2246069904986F4C246804
:10278000A047044606990891059A0499891804916E
:10279000059A0699891A0691FFE7204600E020462F
:1027A00001788DF82810441C01218DF80C1020466A
:1027B00000E020469DF80C209DF828101140C9B279
:1027C00051B16249098801908AB2BDF80A10BDF87A
:1027D0002600FEF787F90198BDF82610491CADF8D0
:1027E00026109DF80C1049008DF80C109DF808106B
:1027F000491C8DF808100446A6E7BDF80A10491CCC
:10280000ADF80A109DF80910491C8DF809108AE7E7
:10281000BDF826104A1C4C490A8081E04A490988C3
:10282000ADF80A1000218DF8091043490A889DF877
:102830000910914280F06F8042490988ADF8261056
:1028400000218DF80C1000218DF808109DF824202F
:102850009DF80810914253D29DF80C1061BB079966
:10286000491C0791089A059991421AD2059A07992D
:10287000914214D90121079105AC2246069904988A
:102880002E4C2468A047044606990891059A04999D
:1028900089180491059A0699891A0691FFE720463E
:1028A00000E0204601788DF82810411C0C460121DB
:1028B0008DF80C10204600E020469DF80C209DF875
:1028C00028101140C9B251B12049098801908AB23B
:1028D000BDF82610BDF80A00FEF704F90198BDF80E
:1028E0002610491EADF826109DF80C1049008DF8F1
:1028F0000C109DF80810491C8DF808100446A5E737
:10290000BDF80A10491CADF80A109DF80910491CC1
:102910008DF8091089E7BDF826104A1E09490A807A
:10292000DDF800E00BB070473401002036010020D4
:1029300038010020260100203C0100203001002049
:102940003E010020240100201E0100204001002043
:1029500081B0034A1080034A117001B0704700BF74
:10296000040100200001002086B0CDF800E085B20F
:1029700040F20001ADF8121000218DF814108049CA
:10298000097849B97F490022084640F2000100F069
:1029900059FE01227A490A707B4909888D4200D28A
:1029A000EAE07A4909888D4200D9E5E0764909884C
:1029B000691A89B28A0092B2754C216808318B1865
:1029C00019788DF81010591C0978CAB2991C097829
:1029D000090289B25218D91C0978090489B252181F
:1029E00021460968891803916A490978002940F04D
:1029F00062806949B1F800800023684909888B42E8
:102A000053D267490988ADF8121040F2000B00213B
:102A10008DF80810D8B25FFA8BF99DF810209DF858
:102A2000081091423AD2B9F1000F0BD103990978FD
:102A30008DF814100399491C039140F201095FFAC3
:102A400089F201E05FFA89F29DF814101140C9B2D1
:102A5000A1B1544909888DF804208DF80500ADF81E
:102A600006808AB20FFA88F1BDF81200FEF73AF834
:102A7000BDF806809DF805009DF80420BDF81210F1
:102A8000491CADF8121051005FFA81FB9DF8081047
:102A9000491C8DF808105FFA8BF9BEE708F10108B0
:102AA0001FFA88F8431CDBB2A7E7BDF812104A1CD6
:102AB0003B490A8060E03A49B1F800800023374979
:102AC00009888B4253D234490988ADF8121040F27C
:102AD000000B00218DF80810D8B25FFA8BF99DF831
:102AE00010209DF8081091423AD2B9F1000F0BD195
:102AF000039909788DF814100399491C039140F249
:102B000001095FFA89F201E05FFA89F29DF8141079
:102B10001140C9B2A1B1234909888DF804208DF86C
:102B20000500ADF806808AB2BDF812100FFA88F0E1
:102B3000FDF7D8FFBDF806809DF805009DF804203C
:102B4000BDF81210491EADF8121051005FFA81FB5A
:102B50009DF80810491C8DF808105FFA8BF9BEE744
:102B600008F101081FFA88F8411CCBB2A7E7BDF8AD
:102B700012104A1E08490A80DDF800E006B07047CE
:102B8000D4000020B25000003401002036010020A3
:102B9000440100203E010020240100203C010020CF
:102BA0001E0100204001002081B0034A1080034A2A
:102BB000118001B0704700BF1E01002024010020D9
:102BC00083B0CDF800E0ADF80400ADF808100220A5
:102BD000174C2468A047BDF80420140AE0B2154C35
:102BE0002468A0470320124C2468A047BDF80400C5
:102BF000104C2468A04706200D4C2468A047BDF85F
:102C00000820140AE0B20B4C2468A0470720084CA7
:102C10002468A047BDF80800064C2468A04722207D
:102C2000034C2468A047DDF800E003B0704700BF04
:102C3000100100201401002081B0CDF800E0FEF763
:102C4000EBF8DDF800E001B0704781B0CDF800E0AE
:102C500085B28EB22A20FDF7D9FE2A0AD0B2FDF73E
:102C6000AFFEE8B2FDF7ACFE0320FDF7A9FE1F2082
:102C7000FDF7A6FE2B20FDF7C9FE320AD0B2FDF704
:102C80009FFEF0B2FDF79CFE0120FDF799FEDF20CC
:102C9000FDF796FE2C20FDF7B9FEDDF800E001B04F
:102CA0007047FFFF83B0CDF800E0ADF80400ADF849
:102CB00008102A20144C2468A04701AA521C12783C
:102CC000D4B2E0B2114C2468A047BDF804000F4C08
:102CD0002468A0472B200C4C2468A04702AA521C51
:102CE0001278D4B2E0B2094C2468A047BDF80800BD
:102CF000064C2468A0472C20034C2468A047DDF82C
:102D000000E003B0704700BF100100201401002054
:102D100083B0CDF800E0ADF80400ADF808102A202B
:102D2000134C2468A047BDF80420140AE0B2114CEB
:102D30002468A047BDF804000E4C2468A0472B204F
:102D40000B4C2468A047BDF80820140AE0B2094CD7
:102D50002468A047BDF80800064C2468A0472C2032
:102D6000034C2468A047DDF800E003B0704700BFC3
:102D7000100100201401002081B0CDF800E0FEF722
:102D800069F8FEF7DDF8012149B297480160FEF7C6
:102D9000D7F8FEF7D5F80021EA20FEF7DDF820216C
:102DA000EB20FEF7D9F80C21EC20FEF7D5F8C42172
:102DB000ED20FEF7D1F84021E820FEF7CDF83821CC
:102DC000E920FEF7C9F80121F120FEF7C5F810212E
:102DD000F220FEF7C1F8A3212720FEF7BDF800215D
:102DE0004020FEF7B9F800214120FEF7B5F8012197
:102DF0004220FEF7B1F813214320FEF7ADF8102171
:102E00004420FEF7A9F826214520FEF7A5F8082161
:102E10004620FEF7A1F851214720FEF79DF8022138
:102E20004820FEF799F812214920FEF795F818215D
:102E30004A20FEF791F819214B20FEF78DF8142156
:102E40004C20FEF789F819215020FEF785F82F2134
:102E50005120FEF781F82C215220FEF77DF83E210B
:102E60005320FEF779F83F215420FEF775F83F21F3
:102E70005520FEF771F82E215620FEF76DF87721C8
:102E80005720FEF769F80B215820FEF765F8062158
:102E90005920FEF761F807215A20FEF75DF80D2151
:102EA0005B20FEF759F81D215C20FEF755F8CC2178
:102EB0005D20FEF751F84D4800785A2810D10021C6
:102EC0000420FEF749F8EF210520FEF745F801211F
:102ED0000820FEF741F83F210920FEF73DF80FE0FA
:102EE00001210420FEF738F83F210520FEF734F8D1
:102EF00000210820FEF730F8EF210920FEF72CF81A
:102F00003A4800785A280DD139480078012804D170
:102F1000C8211620FEF720F803E008211620FEF74E
:102F20001BF80CE032480078012804D1A8211620B3
:102F3000FEF712F803E068211620FEF70DF81B21BA
:102F40001B20FEF709F801211A20FEF705F82F21B2
:102F50002420FEF701F857212520FDF7FDFF8D21E4
:102F60002320FDF7F9FF36211820FDF7F5FF012199
:102F70001920FDF7F1FF00210120FDF7EDFF882169
:102F80001F20FDF7E9FFFDF757FF80211F20FDF708
:102F9000E3FFFDF751FF90211F20FDF7DDFFFDF757
:102FA0004BFFD0211F20FDF7D7FFFDF745FF05217F
:102FB0001720FDF7D1FF00213620FDF7CDFF382186
:102FC0002820FDF7C9FFFDF71BFFFDF719FFFDF7EF
:102FD00017FFFDF715FF3C212820FDF7BDFFDDF8A9
:102FE00000E001B0704700BF947F4E421C010020FA
:102FF000D100002081B0CDF800E0FDF7F1FEDDF852
:1030000000E001B0704781B0CDF800E0FDF7D8FED8
:10301000DDF800E001B0704781B0CDF800E0FDF7C9
:10302000BFFEDDF800E001B07047FFFF81B0CDF8D2
:1030300000E0034C2468A047DDF800E001B07047D1
:10304000F400002084B0CDF800E0ADF80C000022C0
:1030500052B212490A6000210020114C2468A04796
:1030600010490A88104909885143029100210191B1
:10307000029A0199914208D2BDF80C000B4C2468C9
:10308000A0470199491C0191F2E7012252B203497C
:103090000A60DDF800E004B0704700BF987F4E4240
:1030A00020010020020100200E0100201801002054
:1030B00083B0CDF800E01FFA80F91FFA81FA97B2C9
:1030C0001FFA83F817B91FFA89F048E0474502D183
:1030D0001FFA8AF043E002AE0DF1060501AC33465B
:1030E0002A4621461FFA89F0FEF7DAF80DF10906A3
:1030F0000DF107050DF1050433462A4621461FFA56
:103100008AF0FEF7CDF8BEB29DF805509DF8044058
:103110002C1B24B2744394FBF8F59DF80440641909
:10312000E0B2BEB29DF807509DF806402C1B24B2B9
:10313000744394FBF8F59DF806406419E1B2BEB201
:103140009DF809509DF808402C1B24B2744394FB51
:10315000F8F59DF808406419E2B2FEF7AEF8DDF824
:1031600000E003B0704781B0CDF800E0002204B465
:1031700040F240130122FDF747FA01B0DDF800E00C
:1031800001B0704781B0CDF800E01D4A1288012AD5
:1031900008D01C4B1C4A13601C4B1D4A13601D4B6E
:1031A0001D4A13601D4A10801D4A1180884203D9B0
:1031B00000231C4A137002E05A231A4A137001219B
:1031C00040F20000FFF7C4FB0023002208B404B45F
:1031D0000023002200210020FDF7DEFE02B00021C6
:1031E0000020FFF7E1FC00230F4A1370FFF7C4FD36
:1031F0000E4B0F4A1360DDF800E001B0704700BFCE
:10320000D20000209909000010010020590A000096
:1032100014010020D90F0000180100200201002035
:103220000E0100201C0100201D010020C12B000008
:103230002001002081B0014608460B460246401C92
:10324000117801B1FAE7C11A491E08B201B07047FE
:1032500083B0CDF800E0039A0498049002A904A872
:10326000001D0860019210460A460499FEF738F8DE
:10327000019A03B211180020087018B2DDF800E0BE
:1032800003B0704783B0CDF800E002901C4B1B8860
:10329000994200D32FE01B4B1B889A4200D32AE0AF
:1032A0000020ADF8040088B291B2FFF77DFCBDF8B4
:1032B0000400029B1B181B78EBB1134B1B7863B106
:1032C000029B1B181B78ADF8040098B2FFF7C2F9F7
:1032D000BDF80400411C89B20BE0029B1B181B784F
:1032E000ADF8040098B2FFF73FFBBDF80400411CA5
:1032F00089B288B2DDE7DDF800E003B0704700BFB7
:10330000020100200E0100201D01002081B0CDF837
:1033100000E082460AF108010978A9B90AF108011A
:103320000978CCB20AF1060109888BB20AF10401CE
:103330000978CAB2DAF800100846D1B2002210B4F7
:10334000FDF762F901B02DE00AF108010978CCB26D
:103350000AF1060109888BB20AF104010978CAB2A0
:10336000DAF800100846D1B20F2210B4FDF74CF97C
:1033700001B00AF106010988B1F5A16F12D10AF175
:1033800008010978CBB20AF1040109784A08DAF891
:10339000001008B440F240530846D1B20F22FDF7A6
:1033A00033F901B0DDF800E001B0704788B0CDF826
:1033B00000E0ADF81800ADF81C101DB213B2A9B2B0
:1033C00098B2FFF7F1FBBDF918409C4207D1BDF957
:1033D000182029B2BDF91C00FDF74CFE29E1BDF90A
:1033E0001C40AC4207D1BDF91C2019B2BDF9180030
:1033F000FDF7BAFE1DE10024ADF81040BDF91840FC
:103400001C1B24B2ADF80640002C0ADABDF90640B8
:103410006442ADF80640BDF81040641EADF810409F
:1034200004E0BDF81040641CADF810400024ADF875
:103430001240BDF91C402C1B24B2ADF80840002CF2
:103440000ADABDF908406442ADF80840BDF8124000
:10345000641EADF8124004E0BDF81240641CADF8E3
:1034600012400024ADF81440BDF90850BDF90640E3
:10347000AC4245DABDF81440641CADF81440BDF907
:103480000600BDF90840ADF80640ADF80800BDF9EA
:103490001800BDF91C40ADF81840ADF81C00BDF88F
:1034A0001000BDF81240ADF81040ADF8120040F227
:1034B000010A5FFA8AF0614C2478A0421FD8C1B299
:1034C00001F0010424B214B9494209B2FFE74E10D9
:1034D00036B25B4C2588BDF91C40A4198DF8040058
:1034E000AAB2BDF9181020B2FDF7FCFA9DF804004D
:1034F00000F1010A5FFA8AFA5FFA8AF0DBE726E058
:1035000040F2010A5FFA8AF04C4C2478A0421ED89F
:10351000C1B201F0010424B214B9494209B2FFE773
:103520004E1036B2464C2588BDF91C40A4198DF8C2
:103530000400AAB221B2BDF91800FDF7D3FA9DF834
:103540000400441C5FFA84FA5FFA8AF0DCE7BDF9F4
:1035500006406400ADF80E40BDF9084065002DB28C
:10356000ADF80C50BDF906402C1BADF80A40BDF972
:103570000640641E24B2ADF80640002C59DBBDF9AC
:103580000A40002C0DDBBDF81250BDF91C40641937
:10359000ADF81C40BDF90E50BDF90A40641BADF8F2
:1035A0000A40BDF81050BDF918406419ADF8184034
:1035B000BDF90C50BDF90A406419ADF80A4001206C
:1035C0001E4C2478A04233D8C5B205F0010424B2C1
:1035D0001CB96C4225B229B200E029B2491009B2E7
:1035E000BDF814407CB1164C2588BDF91C40641808
:1035F0008DF80400AAB2BDF9181020B2FDF772FAD6
:103600009DF804000EE00E4C2588BDF91C4064189E
:103610008DF80400AAB221B2BDF91800FDF762FAD4
:103620009DF80400441C5FFA84F85FFA88F0C7E74D
:103630009DE7DDF800E008B0704700BF0001002002
:103640000401002081B0124B1860831C1C78C31C3D
:103650001B781B029BB2E4180E4B1C80031D1C78C8
:10366000431D1B781B029BB2E4180B4B1C80831D6F
:103670001C780A4B1C800A4B19800A4B1A700124D3
:10368000094B1C700024094B1C7001B0704700BF2F
:103690004401002034010020360100203C010020BC
:1036A000400100203E010020D40000201D01002028
:1036B000004870478038010081B01CF8019B0BF86E
:1036C000019BBBEB0A0FF8D101B0704788B0CDF871
:1036D00000E0ADF81000ADF81410ADF81820ADF80A
:1036E0001C308C4C24786508EDB2BDF91040641B89
:1036F00024B223B2002C03DA00231BB218B209E073
:10370000854C2488A34204D3834C2488631E1BB2B7
:10371000FFE718B27F4C2478641E24B265102DB2E6
:10372000BDF91840641924B225B2002C03DA002533
:103730002DB229B209E0784C2488A54204D3764CF6
:103740002488651E2DB2FFE729B2724C2478FCB1A3
:10375000ADF80410ADF80600BDF91420FDF704FD26
:10376000BDF90600BDF90410BDF91C20FDF7FCFCF5
:10377000BDF91020BDF91C10BDF91400FDF77AFC4D
:10378000BDF91820BDF91C10BDF91400FDF772FC3D
:10379000624C2478002C00F0B880614C2488ADF88D
:1037A0000C405C4F3C788DF80E403C462478641CFD
:1037B00024B26610B5B2BDF910406419ADF81040DE
:1037C000B5B2BDF914406419ADF814403C462478F4
:1037D000A41C24B26610B5B2BDF91840641BADF844
:1037E0001840B5B2BDF91C40641BADF81C404D4CEF
:1037F0002478002C00F063804B4C24787CBBBDF90E
:103800001440ADF80A40BDF91C50BDF80A40AC4266
:1038100024D8BDF91450BDF91C40671BBDF91450E4
:10382000BDF80A40661B414C2588414C2488BBB238
:10383000B2B2A9B2A0B2FFF73BFC0121FFF788F8B2
:10384000BDF80A20BDF91810BDF91000FDF78CFC79
:10385000BDF80A40641CADF80A40D4E72EE0BDF97B
:103860001040ADF80840BDF91850BDF80840AC4212
:1038700024D8BDF91050BDF91840671BBDF9105090
:10388000BDF80840661B294C2588294C2488BBB20A
:10389000B2B2A9B2A0B2FFF70BFC0121FFF758F8B2
:1038A000BDF80820BDF91C10BDF91400FDF7E2FBBE
:1038B000BDF80840641CADF80840D4E71DE01D4C7D
:1038C00024880121A0B2FFF743F8BDF91440ADF8F8
:1038D0000A40BDF91C50BDF80A40AC420DD8BDF8F5
:1038E0000A20BDF91810BDF91000FDF73DFCBDF828
:1038F0000A40641CADF80A40EBE7BDF80C50084CD8
:1039000025809DF80E50034C2570DDF800E008B0CE
:10391000704700BF000100200201002001010020CB
:103920000401002006010020070100200A010020F8
:10393000080100200C01002081B04FF000094BF875
:10394000049BBBEB0A0FFAD101B0704781B0CDF8F0
:1039500000E0F02140F24010FFF714FC0821284855
:10396000FFF701FC012149B2264801604FF6FF70C4
:10397000FFF768FB012140F20000FEF7E9FFDC23BE
:103980001BB240F22C1212B2DC2109B2142000B298
:10399000FFF70CFD2E231BB240F22C1212B22E2187
:1039A00009B2142000B2FFF701FD00224FF600011A
:1039B0001548FFF747FE15480E221E21FFF762FC4F
:1039C000002240F200011248FFF73CFE1148DF22BE
:1039D0001321FFF757FC00224FF600010C48FFF7B8
:1039E00031FE0D48DF22C821FFF74CFC002240F2D7
:1039F00000010A48FFF726FEDDF800E001B070473D
:103A0000004000408C7F0842A440000022000020BB
:103A10002A5900003D00002059000020B25000004B
:103A200082B0CDF800E0002149B215480190016054
:103A300042F67E47C0F280077F1EFDD100BF00BF67
:103A400000BF00BF00BF00BF0020FFF7EFFA0D4925
:103A500008700020FFF7EAFA0B4908700020FFF712
:103A6000E5FA0A4908700020FFF7E0FA08490870F3
:103A7000012149B201980160DDF800E002B0704711
:103A8000807F4C4200000020010000200200002046
:103A90000300002081B0CDF800E0002149B2414888
:103AA000017041480078414B18801846B0F9000079
:103AB000010209B219803E48007841EA000000B2D4
:103AC0001880801000B23B49088000F0030000B26B
:103AD000088000EE900AF8EEE00AB5EE000A60EE0B
:103AE000800A354A42ED000A1846B0F9000001117B
:103AF00009B23248018000EE101AB8EEC00A30EE6A
:103B0000800A02ED000A2E4878225021FFF7BAFB06
:103B10002C48FFF78FFB234991F90010814204DD07
:103B200029488C225021FFF7ADFB2648FFF782FB86
:103B30001C490870204850ED000A244810ED000A86
:103B4000B4EEE00AF1EE10FA21D000224FF6FF7138
:103B50001F48FFF777FD7822AF211A48FFF792FB45
:103B6000154810ED000A1B4916482DED010A02B454
:103B700001B4FFF76DFB03B0002240F200011448CE
:103B8000FFF760FD7822AF210E48FFF77BFB0A4864
:103B900010ED000A0D4800ED000ADDF800E001B06C
:103BA000704700BFD500002000000020D600002094
:103BB00001000020D8000020DC000020DA000020F6
:103BC00004000020E000002011000020F000002090
:103BD000B2500000C361000089B0CDF800E007904A
:103BE0001846ADF820200DF1100B0BF10B0ADFF891
:103BF00018C1FFF761FDADF80410FFF787FBBDF8B2
:103C0000041001256DB2414C2560414C206800250F
:103C10006DB2404C2560404C2160BDF820503F4CB7
:103C200025603F4D3F4C25603F4D404C2560FFF7E0
:103C30003FFD40F2E83400FB04F5079CB5FBF4F4CB
:103C4000029429B9029C022C01DA0224029404E0B5
:103C5000029C0C2C01DA0C240294022109B2B1F16D
:103C6000FF0F3BDA002212B210B2B0F5807F2DDADE
:103C70000DB2441C24B26543029C641B0394002CC7
:103C800004DA039D4FF0FF346C43039410B9039C96
:103C9000059404E0039D059CAC4200DA16E0039D08
:103CA000049CAC4202DC039C04B105E0039C049438
:103CB0008DF818108DF81900049C1CB901248DF89A
:103CC0001A4003E0441C22B210B2CEE79DF81A401D
:103CD000012C00D102E0891C09B2C0E79DF8185000
:103CE000134C25609DF8194025022DB20B4C246819
:103CF00044EA0505094C256001256DB2054C256097
:103D0000DDF800E009B07047B861000080C3FC43F3
:103D100008E10F4084001042048000400080004011
:103D2000190E0000F4000020392C0000F8000020DB
:103D30001080004081B0FEE701B0704781B04EF6C0
:103D40008850CEF20000016841F47001016000BFAC
:103D500000BF00BF00BFF1EE100A40F44000E1EEEA
:103D6000100A01B07047FFFF81B0012676B2264AE3
:103D70001660264A1660264A166000256DB2254C4C
:103D80002560254A13686FF470721340224A13604D
:103D900000F00F029301204A126842EA03031E4A10
:103DA00013601E4A13686FF0700213401B4A1360C1
:103DB0001B4A1560194A13686FF0FC521340174AEA
:103DC000136001F03F02D305144A126842EA03036C
:103DD000124A13602660134B1A6802B9FBE70123ED
:103DE0005BB2094A1360104A126832B90B4A136871
:103DF0006FF480421340094A136000235BB2034A08
:103E0000136001B0704700BF180BFC432C0EFC433D
:103E10007C0EFC43580CFC4360E00F4070E00F4008
:103E2000340EFC43180AFC43FC000020FFFFFFFF98
:103E300000F0F8F802210E20FFF796FFFFF77EFF53
:103E400002F004FA02F0C2F9FFF780FD002001B48D
:103E500040F20013012201216448FCF7D5FB01B0B8
:103E6000012149B2624801604FF0000000EE100AE3
:103E7000604800ED000A604850225021FFF702FA26
:103E800041F6FE27C0F2B7077F1EFDD100BF00BF7D
:103E900000BF00BF00BF00BF584B40F2070240F216
:103EA00000015748FFF798FE564864225021FFF75B
:103EB000E9F941F6FE27C0F2B7077F1EFDD100BF2A
:103EC00000BF00BF00BF00BF00BF002240F20001E2
:103ED0004D48FFF7B7FB01214FF6FF70FEF738FDA5
:103EE0004FF6FF714FF6FF7002B401B401230022B8
:103EF0004FF6FF710120FDF74FF802B0AA231BB265
:103F0000D22212B2962109B2502000B2FFF7DEFB96
:103F1000FFF786FD3D48007800F00100C0B201289F
:103F200053D100224FF600013748FFF78BFB38488A
:103F300096225021FFF7A6F93648007800F00100DC
:103F4000C0B2012810D1344896227D21FFF79AF99A
:103F500041F6FE27C0F2B7077F1EFDD100BF00BFAC
:103F600000BF00BF00BF00BF2A48007800F0020079
:103F7000C0B2022810D1294896227D21FFF782F98C
:103F800041F6FE27C0F2B7077F1EFDD100BF00BF7C
:103F900000BF00BF00BF00BF1E48007800F0040053
:103FA000C0B2042810D11E4896227D21FFF76AF97D
:103FB00041F6FE27C0F2B7077F1EFDD100BF00BF4C
:103FC00000BF00BF00BF00BF01E0FFF763FD41F687
:103FD000FE27C0F2B70700BF00BF7F1EFDD100BFA4
:103FE00000BF00BF00BF70E7FEE700BFFC630240F8
:103FF000807F4C42DC00002068000020AC610000A3
:1040000040420F0080000020B2500000010000205C
:104010009700002003000020A0000020AE00002038
:10402000BC00002081B01A4A1A4B01211A480160D5
:104030001A48006800F4804030B103F4804116480B
:10404000016043F48043FFE702F0010068B91448BF
:1040500001686FF0010001401148016040F6D5078A
:10406000C0F202077F1EFDD100BF6FF0020002EA1E
:1040700000010B4801600948036040F21007C0F2DC
:1040800000077F1EFDD100BF0548026001B07047E8
:10409000903BC001002800C1FC00002070E00F40F0
:1040A00060E00F40000020007F0016000188010042
:1040B000059E010006B401000ECA01000EF60100C3
:1040C000112202000F6402000390020006A6020003
:1040D00006BC020009D202000EFE0200032A030001
:1040E0000640030003560300086C03000E82030021
:1040F00004AE03000CC403000BF003000F1C04000B
:104100000C4804000E7404000CA004000DCC040044
:104110000DF8040003240500033A05000D500500C6
:104120000D7C05000DA805000DD405001200060049
:104130000F4206000D6E06000C9A06000EC6060021
:104140000CF206000C1E07000E4A07000C76070052
:1041500004A2070009B807000DE407000A100800D0
:10416000103C08000D6808000F9408000DC00800FE
:1041700010EC08000E1809000E4409000B7009002D
:104180000D9C09000EC8090015F409000D360A003F
:104190000C620A000D8E0A0006BA0A0008D00A0056
:1041A00005E60A000FFC0A000A280B0007540B0062
:1041B0000B6A0B000B960B000AC20B000BEE0B00F8
:1041C0000A1A0C0008460C000B5C0C000A880C0054
:1041D00004B40C0004CA0C000BE00C00040C0D002D
:1041E0000E220D000A4E0D000C7A0D000BA60D00DC
:1041F0000BD20D0008FE0D000B140E0008400E003F
:104200000A560E000B820E0011AE0E000AF00E00D0
:104210000A1C0F000A480F0008740F00068A0F00DE
:1042200007A00F000DB60F000BE20F00000000000A
:10423000000000000000000000000000000000007E
:104240000000000000001C1C1C1C1C1C1C1C1C1C56
:104250001C001C1C00000000000000000036363668
:1042600036360000000000000000000000000000E2
:10427000000000000000C01CC00C600C600EFC3F81
:10428000FC1F32033003FE1FFF0F98018C01CC008E
:10429000CE00000000000000000000000000000050
:1042A0008000F81FFC1F9E008E008E009E00FC0FF9
:1042B000F81F803880388038803CFC1FFC0F80005D
:1042C00000000000000000000000000000000000EE
:1042D00000003E08007F0C006304006306006302D8
:1042E000007F03003E010080F90080FD01808C0109
:1042F000C08C01408C0160FC0120F800000000002F
:1043000000000000000000000000000000000000AD
:10431000F803FC031E000E000E001E007C7E7C7E57
:104320001E1C0E1C0E0E1E0FFC07F80100000000E4
:10433000000000000000000000060606060600005F
:10434000000000000000000000000000000038181D
:104350000C0C0C0606060606060C0C0C18380000A1
:10436000000000000E0C18181830303030303018B3
:1043700018180C0E000000000000000000003000C3
:10438000B400FE017800FE01B4003000000000001F
:10439000000000000000000000000000000000001D
:1043A000000000000000000000000000000080018C
:1043B0008001800180018001FC3FFC3F8001800181
:1043C000800180018001000000000000000000006A
:1043D00000000000000000000000000000000606D1
:1043E00004020000000000000000000000000000C7
:1043F0003F3F00000000000000000000000000003F
:1044000000000000000000000000060600000000A0
:1044100000000000C04040602030101808080C0464
:104420000602020300000000000000000000F0038C
:10443000FC0F1E1E0E1C07380738073807380738D0
:1044400007380E1C1E1EFC0FF003000000000000C9
:104450000000000000000E0E0E0E0E0E0E0E0E0ED0
:104460000E0E0E0E00000000000000000000000014
:10447000FF03FF07000E000E000E000EFC07FE03F8
:104480000F00070007000700FF0FFF0F00000000EC
:10449000000000000000000000000000FF01FF031A
:1044A0008007000700078007FE03FE038007000760
:1044B00000078007FF03FF0100000000000000006C
:1044C0000000000000000000001E001F801FC01F31
:1044D000E01DF01C781C3C1C1E1CFE7FFE7F001C97
:1044E000001C001C00000000000000000000000094
:1044F00000000000FF07FF07070007000700070094
:10450000FF03FF07000E000E000E000EFF07FF0363
:10451000000000000000000000000000000000009B
:10452000E01FF81F3C001C000E000E00FE0FFE1FD7
:104530000E380E381C383C3CF81FE0070000000025
:10454000000000000000000000000000FF0FFF0F4F
:10455000000F00078003C003C001E000F0007800F6
:1045600038003C001E000F000000000000000000AA
:104570000000000000000000FC07FE0F0F1E071CDB
:10458000071C0F1EFE0FFE0F0F1E071C071C0F1E21
:10459000FE0FFC070000000000000000000000000B
:1045A00000000000F801FE070F0F070E071C071C94
:1045B000FE1FFC1F001C001C000E000FFE07FE016A
:1045C00000000000000000000000000000000000EB
:1045D00000000006060000000606000000000000C3
:1045E00000000000000000000006060000000606B3
:1045F00004020000000000000000000000000000B5
:1046000000000010001E800FE0037C001C007C00F6
:10461000E003800F001E00100000000000000000FA
:10462000000000000000000000000000000000008A
:104630000000FC1FFC1F00000000FC1FFC1F00000E
:10464000000000000000000000000000000000006A
:104650000000000000000000000004003C00F80022
:10466000E003001F001C001FE003F8003C000400F2
:10467000000000000000000000000000000000003A
:10468000FE07FE0F001C001C001C001CF80FFC079E
:104690001E000E000E0000000E000E0000000000C4
:1046A000000000000000000000000000000000000A
:1046B000801F00E07F0070E0003880019CB703CCD1
:1046C0001703C61803661803661803668C0166CCC8
:1046D00001E6FB00CC79001C000078E000F03F0010
:1046E000C00F000000000000000000000000E0011A
:1046F000E003E003F00330073807380E180EFC1F04
:10470000FC1F0E1C0E380638077800000000000061
:1047100000000000000000000000FE07FE0F0E1C5D
:104720000E1C0E1C0E1CFE0FFE0F0E1C0E1C0E1C73
:104730000E1CFE0FFE07000000000000000000003D
:10474000000000000000F00FF80F1C001C000E001D
:104750000E000E000E000E000E000C001C00F80FE4
:10476000F00F00000000000000000000000000004A
:104770000000FE07FE0F0E1C0E1C0E380E380E3801
:104780000E380E380E380E1C0E1CFE0FFE070000F1
:104790000000000000000000000000000000F00F1A
:1047A000F80F1C001C000E000E00FE0FFE0F0E0086
:1047B0000E000C001C00F80FF00F000000000000BD
:1047C00000000000000000000000F00FFC0F1C00C3
:1047D0000E000E000E00FE0FFE0F0E000E000E006B
:1047E0000E000E000E00000000000000000000009F
:1047F000000000000000F03FF83F3C001C000E00ED
:104800000E008E3F8E3F0E380E381C383C38F83F75
:10481000F03F000000000000000000000000000069
:1048200000000E0E0E0E0E0E0E0E0E0E0E0EFE0FD3
:10483000FE0F0E0E0E0E0E0E0E0E0E0E0E0E0000C3
:10484000000000000000000000000E0E0E0E0E0E14
:104850000E0E0E0E0E0E0E0E0000000000000000E8
:1048600000000000C001C001C001C001C001C001C2
:10487000C001C001C001C001C001E001FF007F0014
:104880000000000000000000000000000000000028
:104890000E1E0E0F8E078E03CE01EE00FE00FE00F0
:1048A000EE01CE018E038E070E0F0E1E00000000DB
:1048B0000000000000000000000000000E000E00DC
:1048C0000E000E000E000E000E000E000E000E0078
:1048D0000E001E00FC03F8030000000000000000B2
:1048E00000000000000000001EF03EF83EF83EF818
:1048F0007EFC7EFC6EEC6EEEEEEECEE6CEE6CEE715
:104900008EE38EE3000000000000000000000000C5
:10491000000000001E1C1E1C3E1C7E1C7E1CEE1C8B
:10492000CE1CCE1D8E1D8E1F0E1F0E1F0E1E0E1EA8
:104930000000000000000000000000000000000077
:10494000E007F81F3C3C1C380E700E700E700E70A5
:104950000E700E701C383C3CF81FE0070000000091
:10496000000000000000000000000000FE07FE0F35
:104970000E1E0E1C0E1C0E1C0E1EFE0FFE070E0041
:104980000E000E000E000E000000000000000000EF
:104990000000000000000000E007F81F3C3C1C384D
:1049A0000E700E700E700E700E700E701C783C3C07
:1049B000F83FE0F7000000000000000000000000E9
:1049C00000000000FE07FE0F0E1C0E1C0E1C0E1C2D
:1049D000FE0FFE070E070E070E0E0E0E0E1C0E3CEF
:1049E00000000000000000000000000000000000C7
:1049F000F81FFC1F1E000E000E000E00FC0FF81F1B
:104A00000038003800380038FC1FFC0F00000000A0
:104A1000000000000000000000000000FF07FF078A
:104A20007000700070007000700070007000700006
:104A300070007000700070000000000000000000B6
:104A400000000000000000000E1C0E1C0E1C0E1CBE
:104A50000E1C0E1C0E1C0E1C0E1C0E1C0E1C1E1EF4
:104A6000FC0FF00300000000000000000000000048
:104A7000000000000738071C071C0F1E0E0E1E0F3B
:104A80001C071C07B803B803F803F001F001E000AD
:104A90000000000000000000000000000000000016
:104AA00000000000070E1C070F1C061F0E0E1F0E35
:104AB0000E1B0E8C3B069C3B079C39079C3107F86C
:104AC000F103F8F103F8F103F0E001F0E001000078
:104AD00000000000000000000000000000000000D6
:104AE00000000F1E0E0F1C07BC03F803F001F000BE
:104AF000F001F001B803BC071C070E0F0F1E0000E9
:104B00000000000000000000000000000000030F93
:104B100007078E038E03DC01F800F80070007000B8
:104B20007000700070007000700000000000000055
:104B300000000000000000000000FE1FFE1F001E1D
:104B4000000F8007C003E001E001F00078003C00A6
:104B50001E00FE1FFE1F00000000000000000000FD
:104B600000003E3E06060606060606060606060681
:104B70003E3E00000000000003020206040C08088C
:104B800010103020604040C00000000000001F1FD7
:104B90001818181818181818181818181F1F0000B7
:104BA00000000000000000000007800FC01DE0387A
:104BB0007070000000000000000000000000000015
:104BC00000000000000000000000000000000000E5
:104BD00000000000000000000000000000000000D5
:104BE00000000000000000000000000000000000C5
:104BF000000000000000FF03000000001C30600007
:104C000000000000000000000000000000000000A4
:104C10000000000000000000000000000000FC0197
:104C2000FC0300070007FC07FE070E070E07FE0740
:104C3000FC07000000000000000000000000000071
:104C400000000E000E000E000E00FE01FE038E0797
:104C50000E070E070E070E078E03FE03FE0100006F
:104C60000000000000000000000000000000000044
:104C7000000000000000F003FC031C000E000E000A
:104C80000E000E001C00FC03F003000000000000FA
:104C900000000000000000000000000700070007FF
:104CA0000007F807FC071E070E070E070E070E0782
:104CB0001C07FC07F80700000000000000000000CF
:104CC0000000000000000000000000000000F803E9
:104CD000FC030E000E00FE03FE030E000E00FC039C
:104CE000F803000000000000000000000000F8FCD5
:104CF0001C1CFFFF1C1C1C1C1C1C1C1C000000009E
:104D000000000000000000000000000000000000A3
:104D1000F807FC071C070E070E070E070E071E07F5
:104D2000FC07F80700070007FC03FC010000000077
:104D3000000000000E000E000E000E00FE01FE033B
:104D40008E038E038E038E038E038E038E038E03DB
:104D5000000000000000000000000000000E0E0037
:104D60000E0E0E0E0E0E0E0E0E0E000000000000B7
:104D70000000000E0E000E0E0E0E0E0E0E0E0E0E8B
:104D80000E0E070700000000000000000E000E00DD
:104D90000E000E000E078E03CE01EE007E007E0098
:104DA000EE00CE018E038E07000000000000000020
:104DB000000000000E0E0E0E0E0E0E0E0E0E0E0E4B
:104DC0000E0E0000000000000000000000000000C7
:104DD000000000000000FE1FFE3FCE39CE39CE3964
:104DE000CE39CE39CE39CE39CE39000000000000A0
:104DF00000000000000000000000000000000000B3
:104E00000000FE01FE038E038E038E038E038E03CD
:104E10008E038E038E0300000000000000000000DF
:104E20000000000000000000000000000000F00191
:104E3000FC071C070E0E0E0E0E0E0E0E1C07FC07B6
:104E4000F001000000000000000000000000000071
:104E500000000000000000000000FE01FE038E03C1
:104E60000E070E070E070E078E07FE03FE010E004B
:104E70000E000E000E000000000000000000000008
:104E8000000000000000F807FC071C070E070E07D3
:104E90000E070E071E07FC07F807000700070007AC
:104EA000000700000000000000007EFEEEEE0E0E87
:104EB0000E0E0E0E000000000000000000000000BA
:104EC0000000000000000000FC03FE030E000E00C6
:104ED000FE03FC0700070007FE07FE0300000000BA
:104EE00000000000000000001C1C1C1CFFFF1C1C1C
:104EF0001C1C1C1CFCF8000000000000000000004E
:104F0000000000000000000000008E038E038E03EE
:104F10008E038E038E038E038E03FE03F8030000C0
:104F20000000000000000000000000000000000081
:104F3000000000000000070706038E038E039C019B
:104F4000DC01D800F800F80070000000000000004C
:104F50000000000000000000000000000000000051
:104F60000000000000000000000083C301C7C7016B
:104F7000C6C700C6C600EEEE00EC6E006C6C007C8E
:104F80007C00783C00383800000000000000000081
:104F90000000000000000000000000000000000011
:104FA000000000008703CE01FC00FC0078007800C0
:104FB0007C00FC00CE018703000000000000000020
:104FC00000000000000000000000000000000000E1
:104FD0008E038E038E038E038E038E038E038E0349
:104FE000FE03FC0380038003FE01FE0000000000BE
:104FF000000000000000000000000000FE03FE03AF
:10500000C003E001F00078003C001E00FE03FE0338
:10501000000000000000000000000000E0F0303060
:10502000303030301C1C303030303030F0E0000098
:1050300000303030303030303030303030303030A0
:1050400030303030000000000E1E181818181818E4
:1050500070701818181818181E0E000000000000B4
:105060000000000000000000000000000000000040
:10507000F810FC1F040F00000000000000000000FA
:105080000000000000000000000000000000000020
:10509000FE070204020402040204020402040204E1
:1050A00002040204020402040204020402040204D0
:1050B000FE07000020007F00100001880100039817
:1050C000010005A8010008B8010007C801000DD8BB
:1050D00001000AF801000318020005280200053843
:1050E0000200074802000958020003780200058800
:1050F00002000398020006A8020007B8020007C8D1
:10510000020007D8020007E8020007F802000708BB
:1051100003000718030007280300073803000748A7
:10512000030003580300036803000978030009988B
:10513000030009B8030006D8030009E803000908C2
:105140000400072804000738040008480400065833
:105150000400066804000778040008880400049826
:10516000040005A8040007B8040006C804000AD813
:10517000040007F8040008080500071805000828BF
:1051800005000838050007480500065805000768AF
:105190000500087805000C88050008A8050008B877
:1051A000050006C8050005D8050006E8050005F855
:1051B000050009080600082806000538060007480B
:1051C00006000758060006680600077806000788EC
:1051D00006000598060007A8060007B8060002C8E2
:1051E000060003D8060006E8060002F806000A08D2
:1051F0000700072807000738070007480700075877
:10520000070005680700067807000588070007986B
:10521000070007A807000AB8070006D8070007E834
:10522000070006F80700060808000418080006280A
:1052300008000A3808000B580800000000000000B1
:105240000000000000000000000000000000060652
:10525000060606060006060000000000001B1B1BD9
:105260001B00000000000000000000000000484893
:10527000FEFE247F7F1212000000000008083E4B53
:105280000B0B3E6868693E08080000000000000043
:1052900000001E0033023301B3005E0FA019901905
:1052A0008819000F0000000000000000000000004E
:1052B00000003C006600660066003C036603C60111
:1052C000C600BC0300000000000000000006060647
:1052D00006000000000000000000000000180C0C98
:1052E000060606060606060C0C18000000060C0C46
:1052F000181818181818180C0C06000000185A3C3A
:105300005A1800000000000000000000000000002B
:1053100000000000200020002000FC0120002000F0
:10532000200000000000000000000000000000005D
:10533000000000000006060303000000000000005B
:1053400000001F000000000000000000000000003E
:1053500000000000000606000000000000202010F1
:1053600010080804040202010100000000003E636E
:105370006363636363633E00000000000000181E67
:105380001818181818187E000000000000003E6170
:10539000616030180C067F000000000000003E61D4
:1053A00060603C6060613E0000000000000030383A
:1053B0003432317F303030000000000000007E06C3
:1053C000063E606060613E000000000000003C0698
:1053D000033F636363633E000000000000007F60E2
:1053E000303018180C0C0C000000000000003E6368
:1053F00063633E6363633E000000000000003E63A1
:105400006363637E60301E00000000000000000047
:105410000606000000060600000000000000000074
:10542000060600000006060303000000000000005E
:10543000000000008001600018000600060018004F
:10544000600080010000000000000000000000007B
:10545000000000000000FE0100000000FE0100004E
:10546000000000000000000000000000000000003C
:10547000000000000600180060008001800160004C
:1054800018000600000000000000000000001E31AF
:1054900030180C0C000C0C00000000000000000094
:1054A00000007C00820079016D016D016D016D01CC
:1054B000D9000200FC000000000000000000000015
:1054C0000000380038006C006C00C600FE00C6000A
:1054D00083018301000000000000000000003F6322
:1054E00063633F6363633F000000000000003E43CE
:1054F0004303030343433E000000000000003F63FA
:10550000C3C3C3C3C3633F000000000000003F03E8
:1055100003031F0303033F000000000000003F03DC
:1055200003031F03030303000000000000003E43C9
:105530004303736363637E00000000000000C3C385
:10554000C3C3FFC3C3C3C3000000000000000F06B5
:105550000606060606060F000000000000001E18E2
:105560001818181818180F00000000000000633306
:105570001B0F070F1B336300000000000000030334
:105580000303030303033F000000000000000000CA
:105590000000870387034D034D03390339031103CB
:1055A0001103010300000000000000000000474755
:1055B0004D4D5959717161000000000000007EC31B
:1055C000C3C3C3C3C3C37E000000000000003F6329
:1055D0006363633F030303000000000000007EC319
:1055E000C3C3C3C3C3C37E60C000000000003F63E9
:1055F00063633F1B3363C3000000000000003E43B1
:1056000043033E6061613E000000000000003F0C6B
:105610000C0C0C0C0C0C0C00000000000000636370
:105620006363636363633E00000000000000C3C364
:10563000C366663C3C181800000000000000000033
:105640000000630C630C630CF30CF6069E079E07C8
:105650000C030C0300000000000000000000C3C3A6
:10566000663C183C66C3C300000000000000C3C3D2
:1056700066663C18181818000000000000003F3053
:1056800030180C0603033F0000000000001E060651
:1056900006060606060606061E00000000010102B8
:1056A000020404080810102020000000001E181832
:1056B00018181818181818181E000000000000000C
:1056C00000003000480084000201000000000000DB
:1056D00000000000000000000000000000000000CA
:1056E0000000000000000000FF000000000C180097
:1056F00000000000000000000000000000000000AA
:105700003C62607E63637E000000000000030303D0
:105710003B67636363633F0000000000000000001C
:105720001E23030303231E000000000000606060CE
:105730007E63636363736E0000000000000000007E
:105740003E63637F03433E0000000000001C06062A
:105750000F06060606060600000000000000000016
:105760007E63636363736E60613E00000003030346
:105770003B67636363636300000000000003030092
:1057800003030303030303000000000000060600F8
:1057900007060606060606060603000000030303C6
:1057A000331B0F070F1B330000000000000303032F
:1057B00003030303030303000000000000000000D4
:1057C000000000000000DF01330333033303330321
:1057D000330333030000000000000000000000005D
:1057E0003B67636363636300000000000000000028
:1057F0003E63636363633E0000000000000000003E
:105800003B67636363633F03030300000000000022
:105810007E63636363736E6060600000000000007D
:105820001B1F03030303030000000000000000002F
:105830001E23071E38311E0000000000000006066F
:105840001F06060606061C000000000000000000FF
:105850006363636363736E00000000000000000078
:1058600063636336361C1C0000000000000000006B
:1058700000000000000033033303B601B601CE017F
:10588000CC00CC0000000000000000000000000080
:1058900033331E0C1E3333000000000000000000F4
:1058A00063636336361C1C180C0C000000000000FB
:1058B0003F30180C06033F000000000000380C0CBD
:1058C0000C0C070C0C0C0C0C38000000000C0C0C21
:1058D0000C0C0C0C0C0C0C0C0C00000000070C0C3D
:1058E0000C0C380C0C0C0C0C070000000000000025
:1058F00000000000000000001E023F02F103E10171
:105900000000000000000000000000000000000097
:10591000FE07020402040204020402040204020458
:105920000204FE07000000000000000020007F00CD
:105930000D00018801000395010004A2010008AFD9
:10594000010006BC01000BC9010008E3010002F0E0
:10595000010004FD0100040A0200061702000824E9
:10596000020003310200043E0200034B020005580E
:1059700002000665020006720200067F0200068C25
:1059800002000699020006A6020006B3020006C045
:10599000020006CD020006DA020003E7020003F46B
:1059A000020007010300080E0300081B030005287E
:1059B000030009350300074F0300075C0300086973
:1059C0000300087603000683030006900300089D89
:1059D000030007AA030004B7030004C4030007D1AF
:1059E000030006DE030008EB030007F803000805C8
:1059F000040006120400081F0400072C04000739E5
:105A000004000746040007530400076004000A6D01
:105A10000400078704000794040007A1040004AEF3
:105A2000040005BB040004C8040008D5040007E214
:105A3000040004EF040006FC040006090500061635
:105A400005000623050006300500043D0500064A52
:105A50000500065705000264050003710500067E77
:105A60000500028B05000A98050006B2050006BF76
:105A7000050006CC050006D9050005E6050005F37E
:105A8000050004000600060D0600061A0600082799
:105A900006000634060006410600054E0600065BB9
:105AA0000600036806000675060008820600098FD6
:105AB00006000000000000000000000000000000E0
:105AC00000000404040404040004000000000A0AA6
:105AD0000A00000000000000000000005050FC28F8
:105AE000287E14140000000008083C0A0A1C28281C
:105AF0001E08080000000000008C00920052004CBC
:105B0000002003A004900410030000000000000027
:105B10000C12124C5222629C000000000202020091
:105B2000000000000000000000080404020202025D
:105B30000204040800000204040808080808040419
:105B4000020000082A1C2A080000000000000000D3
:105B50000000101010FE10101000000000000000E7
:105B60000000000004040402000000000000000E19
:105B7000000000000000000000000000000004041D
:105B800000000000101008080404020201010000D7
:105B900000001C2222222222221C000000000008F9
:105BA0000E08080808083E00000000001C22201013
:105BB0000804023E00000000001C222018202022C1
:105BC0001C000000000010181412113F10100000FB
:105BD0000000003E02021E2020221C0000000000E7
:105BE0001804021E2222221C00000000003E201089
:105BF000100808040400000000001C22221C2222BD
:105C0000221C00000000001C2222223C20100C005C
:105C10000000000000000404000004040000000074
:105C2000000000040400000404040200000000005E
:105C30006018061860000000000000000000FE0070
:105C4000FE0000000000000000000C30C0300C001E
:105C500000000000000E1010080404000400000002
:105C60000000000000F800040172014A014A014AE4
:105C700001B200040078000000000000181824247D
:105C8000247E424200000000001E22223E42424288
:105C90003E000000000078840202020284780000C6
:105CA0000000003E4282828282423E0000000000EC
:105CB0003E02023E0202023E00000000003E0202DE
:105CC0001E02020202000000000078840202E2824A
:105CD000847800000000004242427E42424242007C
:105CE000000000000E0404040404040E0000000080
