:10000000FC7F0120D9400000CD400000CD40000021
:10001000CD400000CD400000CD400000CD400000AC
:10002000CD400000CD400000CD400000CD4000009C
:10003000CD400000CD400000CD400000CD4000008C
:10004000CD400000CD400000CD400000CD4000007C
:10005000CD400000CD400000CD400000CD4000006C
:10006000CD400000CD400000CD400000CD4000005C
:10007000CD400000CD400000CD400000CD4000004C
:10008000CD400000CD400000CD400000CD4000003C
:10009000CD400000CD400000CD400000CD4000002C
:1000A000CD400000CD400000CD400000CD4000001C
:1000B000CD400000CD400000CD400000CD4000000C
:1000C000CD400000CD400000CD400000CD400000FC
:1000D000CD400000CD400000CD400000CD400000EC
:1000E000CD400000CD400000CD400000CD400000DC
:1000F000CD400000CD400000CD400000CD400000CC
:10010000CD400000CD400000CD400000CD400000BB
:10011000CD400000CD400000CD40000081B08A49B4
:1001200000EA01010846F1E08849096841F001024E
:1001300086490A6086490A686FF001010A408449CD
:100140000A603FE18149096841F001027F490A6084
:100150007F49096841F001027D490A6032E17B492B
:10016000096841F0020279490A6079490A686FF02A
:1001700002010A4076490A6024E17449096841F0A5
:10018000020272490A607249096841F0020270492C
:100190000A6017E16D49096841F004026B490A6081
:1001A0006B490A686FF004010A4069490A6009E175
:1001B0006649096841F0040264490A6064490968B3
:1001C00041F0040262490A60FCE06049096841F0BC
:1001D00008025E490A605E490A686FF008010A4039
:1001E0005B490A60EEE05949096841F00802574945
:1001F0000A605749096841F0080255490A60E1E080
:100200005249096841F0100250490A6050490A6891
:100210006FF010010A404E490A60D3E04B4909686B
:1002200041F0100249490A604949096841F0100249
:1002300047490A60C6E04549096841F02002434940
:100240000A6043490A686FF020010A4040490A6089
:10025000B8E03E49096841F020023C490A603C4947
:10026000096841F020023A490A60ABE03749096861
:1002700041F0400235490A6035490A686FF0400193
:100280000A4033490A609DE03049096841F0400264
:100290002E490A602E49096841F040022C490A6043
:1002A00090E02A49096841F0800228490A602849FB
:1002B000096801F07F0226490A6083E02349096842
:1002C00041F0800221490A602149096841F0800219
:1002D0001F490A6076E01D49096841F480721B4994
:1002E0000A601B490A686FF480710A4018490A6065
:1002F00068E01649096841F4807214490A6014499B
:10030000096841F4807212490A605BE0B0F1402F45
:100310003FF40AAF0F4988423FF414AF0E498842B8
:100320003FF41DAF0D4988423FF427AF0C49884286
:100330003FF430AF0B4988423FF43AAF0A49884254
:100340003FF443AF00F012B800F0FFFF08E10F40A8
:100350006CE00F40008005400050004000900540D8
:100360000060004000A0054000700040164988422F
:100370003FF439AF154988423FF442AF14498842EF
:100380003FF44CAF134988423FF455AF12498842BD
:100390003FF45FAF114988423FF468AF104988428B
:1003A0003FF472AF0F4988423FF47BAF0E49884259
:1003B0003FF484AF0D4988423FF48DAF0C49884229
:1003C0003FF497AF01B0704700B0054000400240D5
:1003D00000C005400050024000D0054000600240CF
:1003E00000E005400070024000F0054000D00340EE
:1003F0000000064082B0CDF800E01FFA83F9CBB2CE
:10040000D5B29DF80870C44C00EA0404A04620460A
:10041000FFF784FE3DB908F58066DD43EDB2346830
:100420002C40346006E0012D04D108F580652C686D
:100430001C432C6009F00104A4B22CB108F5A2659C
:100440002C681C432C6006E008F5A266DD43EDB283
:1004500034682C40346009F00204A4B22CB108F2D4
:1004600014552C681C432C6006E008F21456DD433A
:10047000EDB234682C40346009F00804A4B22CB109
:1004800008F20C552C681C432C6006E008F20C5650
:10049000DD43EDB234682C40346009F01004A4B29E
:1004A0002CB108F5A0652C681C432C6006E008F50B
:1004B000A066DD43EDB234682C40346009F02004BE
:1004C000A4B22CB108F204552C681C432C6006E041
:1004D00008F20456DD43EDB234682C40346009F074
:1004E0004004A4B22CB108F5A1652C681C432C6013
:1004F00006E008F5A166DD43EDB234682C403460B7
:1005000009F08004A4B264B109F04004A4B22CB193
:1005100008F5A3652C681C432C6001E00120F6E07F
:1005200006E008F5A366DD43EDB234682C40346084
:1005300009F48074A4B22CB108F21C552C681C4339
:100540002C6006E008F21C56DD43EDB234682C4006
:10055000346009F40074A4B2002C3DD06F4CA04567
:1005600040F2000500D00125EDB26D4CA04540F2EF
:10057000000400D00124E4B22540EDB2694CA0454E
:1005800040F2000400D00124E4B22540EDB2664CF4
:10059000A04540F2000400D00124E4B22540EDB2B1
:1005A000624CA04540F2000400D00124E4B2254092
:1005B000EDB25F4CA04540F2000400D00124E4B24B
:1005C00005EA0404E4B20CB10120A0E008F5A56539
:1005D0002C681C432C603CE0504CA04540F20005C8
:1005E00000D10125EDB24E4CA04540F2000400D1EF
:1005F0000124E4B22543EDB24A4CA04540F2000488
:1006000000D10124E4B22543EDB2474CA04540F2AD
:10061000000400D10124E4B22543EDB2434CA045CF
:1006200040F2000400D10124E4B22543EDB2404C75
:10063000A04540F2000400D10124E4B245EA0404DC
:10064000E4B234B108F5A566DD43EDB234682C4060
:10065000346009F48064A4B22CB108F584652C6878
:100660001C432C6006E008F58466DD43EDB2346877
:100670002C4034600FB9002049E00B2F01D9012034
:1006800045E0002100200191DAB2C3B24046F9B240
:10069000019F082B12D222FA03F4E4B204F0010401
:1006A000E4B244B19D002DB24FF00F04AC4047EAD4
:1006B00004052F46FFE75B1CDBB2EAE700F22C568D
:1006C000FD4334682C403460002600238DF804205C
:1006D000CAB29DF80410082B13D221FA03F4E4B235
:1006E00004F00104E4B24CB1D5B29C0024B205FA86
:1006F00004F446EA040425462E46FFE75B1CDBB201
:10070000E9E700F22C552C6834432C600020DDF81A
:1007100000E002B0704700BF00F0FFFF0070004033
:10072000004002400050004000B0054000C00540BD
:1007300000900540FFFFFFFF40F21707C0F20007DF
:100740007F1EFDD100BF00BF00BF00BF704781B05A
:10075000CDF800E0002410B4FFF74CFE01B0DDF846
:1007600000E001B07047FFFF01235BB204490B605A
:1007700004490870002252B203490A600B607047B6
:100780009C7F4C42FCD30340907F4E4281B0FAB52F
:1007900090EA02064CBF4FF000464FF000064FEAC9
:1007A00000214FEA40031B0E12BF41F000414FF001
:1007B00000002FE0FF2B29D04FEA02244FEA420528
:1007C0002D0E12BF44F000444FF0000022E0FF2D38
:1007D0001CD05B19A1FB0454002C5CBF64005B1EA1
:1007E00014F1800424BF5B1C6408B3F17E03DCBFFA
:1007F0004FF000000EE0FF2B08D24FEA142030F437
:10080000000040EAC35050EA060003E0FF27FF055E
:1008100046EA0700BDE8FA4001B0704700235BB22A
:1008200004490B6004490870044A1360012149B26D
:10083000116070479C7F4C42FCD30340907F4E4236
:1008400081B0CDF800E0002464B20B4B1C600122A3
:1008500052B20A490A600A490A600A4908700A49FC
:100860000C600A601A60FFF767FFFFF765FFDDF8AD
:1008700000E001B0704700BF987F4E42947F0C4269
:100880009C7F4C42FCD30340907F4E4281B006B522
:100890004FEA40024FEA1262B2F17F0244BF4FF0CA
:1008A000000012E0D2F11F020AD94FEA002141F004
:1008B000004131FA02F100284CBF4842084604E0EA
:1008C00000284FF0004058BF401EBDE8064001B070
:1008D0007047FFFF81B0CDF800E0FFF72DFFFFF775
:1008E0002BFF002464B2094B1C60012252B208495C
:1008F0000A6008490C600849087008490C600A60E1
:100900001A60DDF800E001B0704700BF987F4E42EA
:10091000947F0C429C7F4C42FCD30340907F4E421C
:1009200081B0CDF800E05FFA80F8B8F16E0F2CD3FB
:100930006421B8FBF1F1C9B2123109B28A00284929
:1009400089180A684FF07C50FFF720FF6421B8FB3C
:10095000F1F201FB1282D2B20A21B2FBF1F1C9B26B
:10096000093109B28A001E4989180A68FFF70EFF8B
:100970000A22B8FBF2F102FB1181C9B28A001849C0
:1009800089180A68FFF702FF26E0B8F10A0F1AD9A2
:100990000A21B8FBF1F1C9B2093109B28A00104944
:1009A00089180A684FF07C50FFF7F0FE0A22B8FB66
:1009B000F2F102FB1181C9B28A00094989180A685B
:1009C000FFF7E4FE08E04FEA8802054989180A6843
:1009D0004FF07C50FFF7DAFEDDF800E001B0704721
:1009E00058630000FFFFFFFF4AF67F17C0F20307BE
:1009F0007F1EFDD100BF00BF00BF00BF7047FFFFDB
:100A000081B005490860054A116801B9FBE7024950
:100A1000086801B0704700BF08900040880112428A
:100A200085B0CDF800E0154D0346002922D904AC6D
:100A30000193ADF80810039522461846104C24681F
:100A4000A047039DBDF80810019B04460020BDF897
:100A50001020904206D222782A706D1C641C401C23
:100A600080B2F4E7BDF81020891A89B2BDF81020D1
:100A70009B18DAE7DDF800E005B070472F01002091
:100A80003C01002082B0CDF800E0ADF804200AB2AD
:100A900001B2BDF80400002904DB134B1B88994206
:100AA00000D200E01BE0002A04DB104B1B889A42B6
:100AB00000D200E013E0002464B20D4B1C60ADF8DE
:100AC000040088B291B20B4C2468A047BDF8040022
:100AD000094C2468A047012464B2054B1C60DDF872
:100AE00000E002B0704700BFFE0000200A010020B5
:100AF000987F4E42140100201801002081B0CDF8EB
:100B000000E04FFA80F8B8F1000F58DAC8F10001A0
:100B10004FFA81F849B26E292DDB642149B298FB66
:100B2000F1F149B2123109B28A00514989180B68B2
:100B3000642149B298FBF1F201FB128252B20A2100
:100B400049B292FBF1F149B2093109B28A00484930
:100B5000891808681A46FFF719FE0A2252B298FB54
:100B6000F2F102FB118149B28A00414989180A68F1
:100B7000FFF70CFE77E0B8F10A0F19DD0A2149B240
:100B800098FBF1F149B2093109B28A003849891854
:100B90000B680A2252B298FBF2F102FB118149B2B2
:100BA0008A003349891808681A46FFF7EFFD5AE0B2
:100BB0004FEA88022E4989180968084653E0B8F1BF
:100BC0006E0F2DDB642149B298FBF1F149B212316D
:100BD00009B28A00274989180B68642149B298FB39
:100BE000F1F201FB128252B20A2149B292FBF1F1F9
:100BF00049B2093109B28A001E49891808681A46A3
:100C0000FFF7C4FD0A2252B298FBF2F102FB1181F8
:100C100049B28A00174989180A68FFF7B7FD22E030
:100C2000B8F10A0F19DD0A2149B298FBF1F149B276
:100C3000093109B28A000F4989180B680A2252B299
:100C400098FBF2F102FB118149B28A000949891827
:100C500008681A46FFF79AFD05E04FEA8802054941
:100C6000891809680846DDF800E001B0704700BF48
:100C7000586300002463000081B0392803D830286D
:100C800001D3012100E00021C8B201B07047FFFF8D
:100C900081B005490860054A116801B9FBE70249BE
:100CA000086801B0704700BF08800040880110420A
:100CB0004DF2BE47C0F201077F1EFDD100BF00BF4D
:100CC00000BF00BF00BF00BF7047FFFF81B0CDF87D
:100CD00000E047F20040C4F202004FF001014FEA89
:100CE000411140F240130122C9B2FFF730FD00214B
:100CF00049B22B48016046F20040C4F202004FF0B6
:100D000001014FEAC11140F240130122C9B2FFF7BD
:100D10001EFD012149B22348016047F20040C4F2A0
:100D200002004FF001014FEA811140F2401301220D
:100D3000C9B2FFF70CFD012149B21B48016046F220
:100D40000040C4F200004FF001014FEA411140F2AF
:100D500040130122C9B2FFF7FAFC47F20040C4F287
:100D600002004FF001014FEA011140F2401301224D
:100D7000C9B2FFF7ECFC012149B20C4801600C48F4
:100D800001604DF20040C4F2030040F24013012222
:100D9000FF21FFF7DCFCDDF800E001B0704700BF89
:100DA000947F4E429C7F4C42987F4E42947F0C42EF
:100DB000907F4E4281B0CDF800E002B5002802D508
:100DC000FFF764FD15E04FEA40014FEA1161B1F110
:100DD0007F013CBF4FF000000BE0D1F11F0106D3B3
:100DE0004FEA002040F0004030FA01F001E000201E
:100DF000401EBDE80240DDF800E001B0704781B060
:100E000010B5904208BF2AE040EA02044FEA4404C9
:100E1000002C08BF23E0440004D1944201D4A41C58
:100E2000012C1CE04FEA40044FEA1464FF2C0AD165
:100E30004FEA42044FEA1464FF2C04D14FEAD27403
:100E4000B4EBD0340BE0002A06D4002802DC0024E6
:100E5000012C04E0904202E0002848BF8242BDE835
:100E6000104001B0704781B0FAB590EA02064CBF5D
:100E70004FF000464FF00006010243001B0E12BF68
:100E800041F000414FF0000040E0FF2B3AD05FEA14
:100E900002245FEA42055FEA156511BF44F0004491
:100EA0004FF0FF4040EA060030E0FF2D2AD05B1BE8
:100EB0000020202764084908A14240EB000028BF19
:100EC000091B7F1E05D0002918BF4900F4D110FA74
:100ED00007F010F0004F04BF4000B3F1010310F120
:100EE00080002CBF5B1C400013F17F03DCBF4FF080
:100EF00000000BE0FF2B05D2400A40EAC35050EA45
:100F0000060003E0FF27FF0556EA0700BDE8FA40A8
:100F100001B0704781B0002808BF10E002B54FF063
:100F20009E0202D4521E4000FCD510F180002CBF5E
:100F3000521C4000400A40EAC250BDE8024001B0E5
:100F40007047FFFF82B0CDF800E08DF80410002359
:100F50005BB2094A1360094C2468A0479DF804005D
:100F6000074C2468A04701235BB2034A1360DDF8F5
:100F700000E002B0704700BF987F4E420C01002095
:100F800010010020FFFFFFFF49F6FF67C0F22407B2
:100F90007F1EFDD100BF00BF00BF00BF704781B002
:100FA00082F000422DE9FA414FEA02244FEA42055D
:100FB0002D0E04D1002C18BF4FF000006EE044F05D
:100FC0000044FF2D60D04FEA9404002A48BF6442D9
:100FD0004FEA00214FEA40031B0E05D1002914BF40
:100FE0004FF00000104659E041F00041FF2B4CD07B
:100FF0004FEA9101002848BF49425E1B41BF0F469E
:1010000021463C46764248BF2B46192E47BF44FA3C
:1010100006F7C9194FF0000803E0C6F11C0704FAEF
:1010200007F8002904BF4FF0000037E046BF4942EF
:101030004FF001074FF00007A3F101034900FBD572
:1010400011F080040ED001F0200548EA050811F1E6
:10105000800128BF5B1C01F0400458EA040808BF67
:1010600021F480719B1CDCBF4FF0000016E0FF2BC9
:101070000DD221F0FF014FEA41014FEA512040EA31
:10108000C35040EAC77009E010464FEAD0774FEAF4
:10109000C777FF204FEAC05050EA0700BDE8FA4189
:1010A00001B0704781B02DE9FA414FEA02244FEABE
:1010B00042052D0E04D1002C18BF4FF000006EE049
:1010C00044F00044FF2D60D04FEA9404002A48BF4A
:1010D00064424FEA00214FEA40031B0E05D100296C
:1010E00014BF4FF00000104659E041F00041FF2BC3
:1010F0004CD04FEA9101002848BF49425E1B41BFD6
:101100000F4621463C46764248BF2B46192E47BF24
:1011100044FA06F7C9194FF0000803E0C6F11C07AE
:1011200004FA07F8002904BF4FF0000037E046BF7B
:1011300049424FF001074FF00007A3F101034900B6
:10114000FBD511F080040ED001F0200548EA050817
:1011500011F1800128BF5B1C01F0400458EA04082B
:1011600008BF21F480719B1CDCBF4FF0000016E02B
:10117000FF2B0DD221F0FF014FEA41014FEA512030
:1011800040EAC35040EAC77009E010464FEAD07702
:101190004FEAC777FF204FEAC05050EA0700BDE88A
:1011A000FA4101B07047FFFF85B0CDF800E0ADF81F
:1011B0000C1001B2ADF81020BDF90C30994205DDDC
:1011C00088B2BDF90C10ADF80C00FFE7002903DA76
:1011D000002109B208B205E03A4B1B88994200D3BE
:1011E0006CE008B2BDF90C30002B00DA66E0354B3C
:1011F0001C88BDF90C30A34204D3324B1B885B1E04
:10120000ADF80C3001238DF808302F4B1C789DF879
:101210000830A34252D89DF8084004F001031BB2E5
:101220001BB963421CB221B200E021B24C1024B2BF
:1012300021B2BDF910301B191BB2002B08DBBDF920
:1012400010305C1824B2214B1B889C4200D201E074
:1012500002B22CE0002464B21D4B1C60BDF91030BA
:101260005C18ADF80400A1B280B21A4C2468A04703
:10127000BDF9040086B2B1B2BDF90C30994211D863
:10128000154B1C88ADF80400ADF80610A0B2134C45
:101290002468A047BDF80610BDF904004B1C9EB29F
:1012A000B1B2E9E7012464B2094B1C6002B29DF8B7
:1012B00008305B1C8DF8083010B2A6E7DDF800E0BE
:1012C00005B07047FE000020FC0000200A0100204D
:1012D000987F4E42140100200001002018010020D8
:1012E0008BB0CDF800E040F20001ADF826100021EF
:1012F0008DF82810AF490988884200D256E1AE49DE
:101300000988884200D951E1AA490988411A89B25D
:101310008A0092B2A949096808318918084604214F
:10132000FFF77EFBA64803788DF82430411C09782E
:10133000CAB2811C0978090289B25218C11C097805
:10134000090489B252189D49096889180491DA087C
:10135000D2B29C490988514389B206919DF8241064
:1013600001F00701C9B221B196490A880699891886
:1013700006910699089105AC224606990498924C6C
:101380002468A0470446059A049989180491059A8F
:101390000699891A0691002107918C49097800293C
:1013A00040F082808A490988ADF80A1000218DF842
:1013B000091084490A889DF80910914280F06E80D6
:1013C00084490988ADF8261000218DF80C10002101
:1013D0008DF808109DF824209DF80810914252D2F3
:1013E0009DF80C1059BB0799491C0791089A05995B
:1013F00091421AD2059A0799914214D90121079175
:1014000005AC2246069904986F4C2468A047044610
:1014100006990891059A049989180491059A0699E4
:10142000891A0691FFE7204600E0204601788DF8F2
:101430002810441C01218DF80C10204600E02046A5
:101440009DF80C209DF828101140C9B251B1624995
:10145000098801908AB2BDF80A10BDF82600FFF78E
:1014600011FB0198BDF82610491CADF826109DF817
:101470000C1049008DF80C109DF80810491C8DF8CF
:1014800008100446A6E7BDF80A10491CADF80A107A
:101490009DF80910491C8DF809108AE7BDF826103F
:1014A0004A1C4C490A8081E04A490988ADF80A1073
:1014B00000218DF8091043490A889DF809109142CE
:1014C00080F06F8042490988ADF8261000218DF820
:1014D0000C1000218DF808109DF824209DF80810AC
:1014E000914253D29DF80C1061BB0799491C07919A
:1014F000089A059991421AD2059A0799914214D9EE
:101500000121079105AC2246069904982E4C2468C7
:10151000A047044606990891059A049989180491F0
:10152000059A0699891A0691FFE7204600E02046B1
:1015300001788DF82810411C0C4601218DF80C1003
:10154000204600E020469DF80C209DF82810114010
:10155000C9B251B12049098801908AB2BDF826105C
:10156000BDF80A00FFF78EFA0198BDF82610491E53
:10157000ADF826109DF80C1049008DF80C109DF860
:101580000810491C8DF808100446A5E7BDF80A109C
:10159000491CADF80A109DF80910491C8DF8091076
:1015A00089E7BDF826104A1E09490A80DDF800E0E7
:1015B0000BB07047220100202801002040010020CC
:1015C0002F0100202A0100203C0100202E010020D4
:1015D000200100201E0100202C010020C308DBB2E6
:1015E000DC02A4B28B08DBB25B019BB21C43A4B249
:1015F000D308DBB244EA030398B270478DB0CDF84C
:1016000000E00891099240F20003ADF81C30024658
:10161000089C089B5B1C089323788DF80630002BF0
:1016200001F022829DF80630252B09D09DF8063066
:101630001370521CBDF91C305B1CADF81C30E7E781
:1016400000231BB2ADF808300023ADF80A3031E0BA
:10165000BDF80A3043F00803ADF80A30089B5B1C64
:1016600008933CE0BDF80A3043F00103ADF80A30BE
:10167000089B5B1C089332E0BDF80A3043F002037C
:10168000ADF80A30089B5B1C089328E0BDF80A30CF
:1016900043F40063ADF80A30089B5B1C08931EE01E
:1016A000BDF80A3043F00403ADF80A30089B5B1C18
:1016B000089314E0089B1B782D2BC9D0089B1B783E
:1016C000202BCFD0089B1B782B2BD5D0089B1B78C9
:1016D000232BDBD0089B1B78302BE1D000E0B6E752
:1016E000BDF80A3003F002039BB23BB1BDF80A40DB
:1016F0004FF6FE7304EA0303ADF80A30BDF80A3072
:1017000003F008039BB23BB1BDF80A404FF6FB73F0
:1017100004EA0303ADF80A30089B1B78D8B2FFF740
:10172000ABFAE0B100231BB2ADF80830FFE7BDF91A
:1017300008400A231BB25C4324B2089B1B78E318C1
:101740001BB2303BADF80830089B5B1C08931B783C
:10175000D8B2FFF791FA0028E9D1174610E0089BAC
:101760001B782A2B0BD1099B1D682C1D099B1C6023
:10177000B5F90030ADF80830089B5B1C089317469C
:10178000089B1B782E2B30D1089B5B1C08931B7881
:101790002A2B0DD1099B1D682C1D099B1C60B5F9D6
:1017A0000030ADF80430089B5B1C0893BC461BE07E
:1017B00000231BB2ADF80430089B1B78D8B2FFF7AA
:1017C0005BFA80B1BDF904400A231BB25C4324B22A
:1017D000089B1B78E3181BB2303BADF80430089B24
:1017E0005B1C0893E8E7BC460AE000231BB2ADF897
:1017F0000430BDF80A3043F48053ADF80A30BC46DB
:10180000089C089B5B1C089323788DF80630D8E071
:10181000BDF91C0001F02AB9BDF80A3043F01003ED
:10182000ADF80A30ECE7BDF80A3043F48063ADF858
:101830000A3015E1BDF80A3043F02003ADF80A3054
:10184000BDF80A3043F48073ADF80A3008E1BDF802
:101850000A3043F40073ADF80A3001E1BDF80A30F4
:1018600043F04003ADF80A30FAE0F9E0BDF80A3081
:1018700043F02003ADF80A30BDF80A3043F080038E
:10188000ADF80A30ECE0099B1D682C1D099B1C601B
:101890002B6805930BB9FB4B05930023ADF818306B
:1018A0006546BDF81840059B1B191B782BB1BDF888
:1018B00018305B1CADF81830F3E72F46BDF9043043
:1018C0004BB1BDF81840BDF90430A34203D2BDF9B5
:1018D0000430ADF81830BDF81840BDF90830A34207
:1018E00007D9BDF81840BDF908301B1BADF808300A
:1018F00003E000231BB2ADF80830BDF80A3003F056
:1019000008039BB29BB93E46BDF90840BDF90830BB
:101910005B1EADF808304CB120233370771CBDF945
:101920001C305B1CADF81C303E46EDE700E03E4647
:10193000BDF81840BDF818305B1EADF8183064B122
:10194000059B1B783370761C059B5B1C0593BDF9CA
:101950001C305B1CADF81C30EAE7BDF80A3003F020
:1019600008039BB29BB13246BDF90840BDF908306F
:101970005B1EADF808304CB120231370561CBDF926
:101980001C305B1CADF81C303246EDE700E03246FF
:101990003EE6099B1D682C1D099B1C60B5F90030B3
:1019A0008DF806300DF1060305930123ADF81830CC
:1019B000674683E7BDF80A3043F0C003ADF80A304C
:1019C0004EE09DF80630002B3FF422AF9DF8063024
:1019D0006C2B3FF421AF9DF806304C2B3FF41CAF2D
:1019E0009DF80630662B3FF41EAF9DF80630452B60
:1019F0003FF420AF9DF80630652B3FF421AF9DF8F2
:101A00000630672B3FF423AF9DF806306F2B3FF471
:101A100025AF9DF80630642B3FF427AF9DF80630C4
:101A2000692B3FF422AF9DF80630702B3FF41EAFB8
:101A30009DF80630582B3FF419AF9DF80630782BEF
:101A40003FF41AAF9DF80630732B3FF41CAF9DF89E
:101A50000630632B9DD09DF80630752BAAD0A1E7E8
:101A6000BDF80A3003F4E0639BB2002B00F06685FA
:101A7000BDF80A3003F480539BB21BB106231BB29E
:101A8000ADF80430099B1D682C1D099B1C602A6859
:101A900003924FF00000FFF7B2F940F2000000DDC2
:101AA0000120C0B248B1039B83F000430393BDF80B
:101AB0000A3043F00303ADF80A3000231BB2ADF83F
:101AC0001030039A4FF00000FFF799F940F2000040
:101AD00000D00120C0B200284BD004AC03AB1B687F
:101AE000DB0D03F0FF037E3B2380BDF910305C1E4D
:101AF00024B2ADF8104003231BB25C4324B2ADF80E
:101B000010400A231BB294FBF3F31BB2ADF8103064
:101B1000002B04DABDF910305B1EADF81030BDF9B2
:101B200010305B4258B2FEF7E9FF039AFEF72EFE33
:101B30000590059A4FF07E50FFF761F940F20000E2
:101B400000DD0120C0B228B1BDF910305B1EADF838
:101B500010300EE0059A4C48FFF751F940F20000B2
:101B600000DC0120C0B220B1BDF910305B1CADF823
:101B70001030BDF91030002B03DC01238DF8063046
:101B800003E0BDF910308DF80630BDF80A3003F4DB
:101B900080739BB2A3B9BDF80A3003F400739BB203
:101BA0006BB1BDF910406FF003039C4206DBBDF939
:101BB0000440BDF91030A34200DA00E000E06AE220
:101BC000BDF9043053B1BDF80A3003F400739BB281
:101BD00023B1BDF904305B1EADF80430BDF804300C
:101BE000082B03D908238DF8063003E0BDF9043033
:101BF0008DF80630039A4FF00000FFF700F940F22D
:101C0000000000D00120C0B2002863D0BDF9100050
:101C1000FEF774FF0A900A9A0398FFF724F90390DD
:101C20009DF806305B4258B2FEF768FF0A900A9AA8
:101C30000398FFF718F90C900390FFF7BBF8FFF734
:101C400069F90A900A9A0C98FFF7A9F94FF07C52AB
:101C5000FFF7D5F840F2000000DB0120C0B228B148
:101C600003984FF07C52FFF71DFA03900398FFF79B
:101C7000A1F89DF806305B1C1BB29C00034B1B199E
:101C80001B6805E0CA00002000002041BC63000082
:101C900098420AD3039AF848FEF778FD0390BDF9FD
:101CA00010305B1CADF8103014E00398FFF782F899
:101CB0009DF806309C00F14B1B191B68984209D215
:101CC000039AEF48FEF762FD0390BDF910305B1EEA
:101CD000ADF81030BDF80A3003F400739BB2002B4E
:101CE00040D0BDF80A3003F400639BB2002B3CD116
:101CF000BDF904300A2B03DD0A231BB2ADF8043012
:101D00000398FFF757F80590059B8BB1059D0A24B2
:101D1000B5FBF4F304FB135353B9BDF904305B1E58
:101D2000ADF80430059C0A23B4FBF3F30593EBE70D
:101D30009DF80640BDF90430A34211DABDF9044014
:101D40009DF806301B1B58B2FEF7D8FE0A900A9A7F
:101D50000398FFF788F80390BDF904308DF806303A
:101D6000664600E06646304600E06046BDF9043055
:101D70005C1D24B2BDF908301B1BADF80830BDF95D
:101D8000043033B9BDF80A3003F400639BB203B9E1
:101D900004E0BDF908305B1EADF80830BDF80A302C
:101DA00003F003039BB223B1BDF908305B1EADF80D
:101DB0000830BDF80A3003F004039BB2002B40D07A
:101DC000BDF80A3003F002039BB28BB1BDF80A30B4
:101DD00003F001039BB20BB12D2300E02B23037012
:101DE00000F10109BDF91C305B1CADF81C3010E09E
:101DF000BDF80A3003F001039BB24BB120230370FE
:101E0000461CBDF91C305B1CADF81C30B14600E02F
:101E10008146CB46BDF90830002B10DD30238BF80E
:101E200000300BF10109BDF91C305B1CADF81C3012
:101E3000BDF908305B1EADF80830CB46EAE75D46D9
:101E400046E0BDF80A3003F008039BB2ABB9024686
:101E5000BDF90830002B0EDD20231370541CBDF992
:101E60001C305B1CADF81C30BDF908305B1EADF8B2
:101E700008302246ECE7114600E00146BDF80A3082
:101E800003F002039BB28BB1BDF80A3003F00103EB
:101E90009BB20BB12D2300E02B230B7001F1010B42
:101EA000BDF91C305B1CADF81C3010E0BDF80A30E9
:101EB00003F001039BB24BB120230B70491CBDF909
:101EC0001C305B1CADF81C308B4600E08B465D4639
:101ED0000398FEF76FFF05909DF806309C00674B56
:101EE0001B191C68059BB3FBF4F330332B70681C83
:101EF000BDF91C305B1CADF81C30BDF9043033B9A2
:101F0000BDF80A3003F400639BB203B943E02E230B
:101F1000037000F10109BDF91C305B1CADF81C30E9
:101F20009DF80640BDF904301B1BADF804309DF848
:101F30000630E3B19DF806305B1EDBB28DF806304B
:101F40009C004E4B1B191C68059BB3FBF4F50A243F
:101F5000B5FBF4F304FB1353303389F8003009F177
:101F60000109BDF91C305B1CADF81C30DFE7BDF981
:101F700004307BB1302389F8003009F10109BDF943
:101F80001C305B1CADF81C30BDF904305B1EADF895
:101F90000430ECE74846BDF80A3003F020039BB25A
:101FA0004BB145230370451CBDF91C305B1CADF8DB
:101FB0001C30284608E065230370451CBDF91C3021
:101FC0005B1CADF81C302846BDF91030002B0EDA32
:101FD000BDF910305B42ADF810302D230370471C63
:101FE000BDF91C305B1CADF81C30384608E02B23D3
:101FF0000370471CBDF91C305B1CADF81C30384623
:10200000BDF910400A231BB294FBF3F31BB230332B
:102010000370401CBDF91C305B1CADF81C30BDF9D1
:1020200010500A2424B295FBF4F304FB13531BB2A3
:1020300030330370441CBDF91C305B1CADF81C3000
:10204000BDF80A3003F008039BB2FBB1BDF90830BC
:10205000002B1DDD204600E0204620230370441C99
:10206000BDF91C305B1CADF81C30BDF908305B1E9F
:102070001BB2ADF8083005E0CDCCCC3DBC63000010
:1020800000002041002BE7D1224600E0224600E07C
:102090002246FFF7BDBABDF80A3003F400739BB2C5
:1020A000002B5FD0BDF91030002B08DABDF91030DD
:1020B0005C1E24B2BDF904301B1BADF8043003983C
:1020C000FEF778FE059001238DF806309DF8063066
:1020D0000A2B0FD09DF806309C00F84B1B191C688A
:1020E000059BA34200D205E09DF806305B1C8DF8ED
:1020F0000630EBE79DF80640BDF904301B1BADF838
:102100003030ADF804300598FEF704FF0A900A9AC3
:102110000398FEF744FFBDF930300C9058B2FEF73B
:10212000EDFC0C9AFEF732FB4FF07C52FEF7BAFF43
:10213000FEF740FE0590BDF904308BB1059D0A24E1
:10214000B5FBF4F304FB135353B9059C0A23B4FB0A
:10215000F3F30593BDF904305B1EADF80430EAE7F4
:10216000E14600E0E146BDF904300C2B07DCBDF987
:102170000400FEF7D5FB039AFEF794FF0390039A41
:102180004FF00000FEF73BFE40F2000000D00120BF
:10219000C0B2002834D00398FEF70CFE80BBBDF916
:1021A0001030012B2CDDBDF91000FEF7A7FC0A90C2
:1021B0000A9A0398FEF757FEC14AFEF720FE40F246
:1021C000000000DA0120C0B228B1BDF91030093B8F
:1021D000ADF8103004E0BDF91030083BADF8103018
:1021E000BDF91000FEF78AFC0A900A9A0398FEF7E0
:1021F0003AFEFEF7DFFD05904FF00003039310E079
:102200000398FEF7D7FD05900598FEF783FE0A9028
:102210000A9A0398FEF7C3FE039000231BB2ADF8A1
:10222000103001238DF806304F469DF806300A2BFA
:102230000FD09DF806309C00A04B1B191C68059B15
:10224000A34200D205E09DF806305B1C8DF80630F5
:10225000EBE79DF80640BDF904301C1924B2BDF926
:102260001030E41824B2BDF908301B1BADF808305B
:10227000BDF80A3003F400639BB21BB9BDF904300A
:1022800003B904E0BDF908305B1EADF80830BDF8B5
:102290000A3003F003039BB223B1BDF908305B1E83
:1022A000ADF80830BDF80A3003F004039BB2002BF0
:1022B0003BD0BDF80A3003F002039BB283B1BDF8F6
:1022C0000A3003F001039BB20BB12D2300E02B2356
:1022D0003B707F1CBDF91C305B1CADF81C300FE05F
:1022E000BDF80A3003F001039BB24BB120233B70D1
:1022F0007E1CBDF91C305B1CADF81C303746FFE777
:102300003A46BDF90830002B0EDD30231370571C00
:10231000BDF91C305B1CADF81C30BDF908305B1EEC
:10232000ADF808303A46ECE744E0BDF80A3003F077
:1023300008039BB29BB9BDF90830002B0DDD2023AB
:102340003B707F1CBDF91C305B1CADF81C30BDF927
:1023500008305B1EADF80830EDE7384600E038463F
:10236000BDF80A3003F002039BB28BB1BDF80A300E
:1023700003F001039BB20BB12D2300E02B2303706C
:10238000461CBDF91C305B1CADF81C30324611E018
:10239000BDF80A3003F001039BB24BB12023037058
:1023A000401CBDF91C305B1CADF81C30064600E03B
:1023B000064632469DF806409DF806305B1E8DF8B5
:1023C0000630B4B19DF806309C003C4B1B191C68CC
:1023D000059BB3FBF4F50A24B5FBF4F304FB13539C
:1023E00030331370521CBDF91C305B1CADF81C302F
:1023F000E0E79146BDF91030002B10DD302389F85D
:10240000003009F10102BDF91C305B1CADF81C3035
:10241000BDF910305B1EADF810309146EAE7BDF90A
:102420000430082B03DD08238DF8063003E0BDF9E6
:1024300004308DF806309DF80640BDF904301B1BB2
:10244000ADF804309DF8063033B9BDF80A3003F416
:1024500000639BB203B90AE02E2389F8003009F12A
:102460000104BDF91C305B1CADF81C30A1469DF881
:102470000600FEF743FB039AFEF788F9FEF706FA1B
:1024800005904F469DF806300BB39DF806305B1E55
:10249000DBB28DF806309C00084B1B191C68059BAD
:1024A000B3FBF4F50A24B5FBF4F304FB1353303308
:1024B0003B7007F10109BDF91C3003E0BC6300006B
:1024C0005F7089405B1CADF81C304F46DAE73A4636
:1024D000BDF9043073B130231370571CBDF91C30A3
:1024E0005B1CADF81C30BDF904305B1EADF8043048
:1024F0003A46EDE7BDF80A3003F008039BB2C3B1DA
:10250000BDF90830002B17DD104600E028462023D7
:102510000370451CBDF91C305B1CADF81C30BDF9C7
:1025200008305B1E1BB2ADF80830002BEED12B46F5
:1025300000E013461A46FFE7FFF76AB8BDF80A3015
:1025400003F0C0039BB213BBBDF80A3003F01003C5
:102550009BB23BB1099B1D682C1D099B1C602B681D
:10256000059307E0099B1D682C1D099B1C60B5F9AC
:1025700000300593059B002B08DABDF80A3043F0C4
:102580000303ADF80A30059B5B42059314E0BDF8E8
:102590000A3003F010039BB23BB1099B1D682C1D50
:1025A000099B1C602B68059306E0099B1D682C1D88
:1025B000099B1C602B880593BDF9043033B9059B3A
:1025C00023B9BDF904305B1CADF80430BDF80A3006
:1025D00003F0C003DDB247E001238DF806309DF81B
:1025E00006300A2B0FD09DF806309C00F54B1B19C6
:1025F0001C68059BA34200D205E09DF806305B1CD9
:102600008DF80630EBE737E001238DF806309DF8B2
:102610000630082B0FD09DF806309C00EA4B1B19A2
:102620001C68059BA34200D205E09DF806305B1CA8
:102630008DF80630EBE71FE001238DF806309DF89A
:1026400006300C2B0FD09DF806309C00DF4B1B1979
:102650001C68059BA34200D205E09DF806305B1C78
:102660008DF80630EBE707E0002DB5D0C02DB3D0D4
:10267000802DC9D0402DDFD0BDF904409DF8063033
:10268000A34204DABDF904308DF8063009E09DF864
:102690000640BDF90430A34203DA9DF80630ADF8D8
:1026A0000430BDF9083053B1BDF80A3003F003031C
:1026B0009BB223B1BDF908305B1EADF80830BDF9FF
:1026C0000440BDF90830A34207DDBDF90440BDF95F
:1026D00008301B1BADF8083003E000231BB2ADF837
:1026E0000830BDF80A4040F6C40304EA03039BB275
:1026F000B3F5046F08D1BDF9083023B1BDF9083036
:102700005B1EADF8083015E0BDF80A3003F40C6329
:102710009BB2B3F5086F0DD1BDF90830022B05DD72
:10272000BDF908309B1EADF8083003E000231BB252
:10273000ADF80830BDF80A3003F004039BB2002B5B
:1027400000F06B80BDF80A3003F002039BB293B136
:10275000BDF80A3003F001039BB20BB12D2300E05A
:102760002B238CF800300CF10100BDF91C305B1CF0
:10277000ADF81C3037E0BDF80A3003F001039BB21E
:102780005BB120238CF800300CF10105BDF91C3041
:102790005B1CADF81C302B4624E0BDF80A3003F476
:1027A0000C639BB2B3F5086F1AD130238CF800305C
:1027B0000CF10100BDF91C305B1CADF81C30BDF8FC
:1027C0000A3003F020039BB20BB1582300E07823BA
:1027D0000370451CBDF91C305B1CADF81C3000E0DB
:1027E00065462B461846BDF90830A3B100E05046B7
:1027F00030230370431C9A46BDF91C305B1CADF8B6
:102800001C30BDF908305B1E1BB2ADF80830002B40
:10281000EDD1544600E004467DE0BDF90830CBB16F
:10282000BDF80A3003F008039BB2ABB9604600E084
:10283000384620230370471CBDF91C305B1CADF8E3
:102840001C30BDF908305B1E1BB2ADF80830002B00
:10285000EED100E0674600E06746BDF80A3003F0BD
:1028600002039BB28BB1BDF80A3003F001039BB2A7
:102870000BB12D2300E02B233B707F1CBDF91C30D6
:102880005B1CADF81C3038460FE0BDF80A3003F091
:1028900001039BB243B120233B707F1CBDF91C3068
:1028A0005B1CADF81C30FFE73846BDF80A3003F476
:1028B0000C639BB2B3F5046F09D130230370461C3F
:1028C000BDF91C305B1CADF81C30344623E0BDF86C
:1028D0000A3003F40C639BB2B3F5086F19D13023AF
:1028E0000370401CBDF91C305B1CADF81C30BDF8FA
:1028F0000A3003F020039BB20BB1582300E0782389
:102900000370401CBDF91C305B1CADF81C30064642
:1029100000E00646344621469DF80640BDF90430E5
:10292000A3420ADD30230B704B1C1C46BDF91C3042
:102930005B1CADF81C302146EEE7BDF90440BDF943
:1029400004305B1EADF80430002C00F06A80BDF846
:102950000A3003F0C003DEB251E0BDF904309C0040
:10296000184B1B191C68059BB3FBF4F50A24B5FB37
:10297000F4F304FB135330338DF8063047E0BDF811
:102980000A3003F020039BB283B1BDF904309C00F0
:102990000D4B1B191C68059BB3FBF4F303F00F04EC
:1029A0000B4B1B191B788DF8063018E0BDF904306D
:1029B0009C00054B1B191C68059BB3FBF4F303F04B
:1029C0000F0407E0BC630000E46300008C630000B8
:1029D00015640000274B1B191B788DF8063016E094
:1029E000BDF904309C00244B1B191C68059BB3FBEC
:1029F000F4F303F0070330338DF8063007E0002EC0
:102A0000ABD0C02EA9D0802EB9D0402EE8D09DF8F2
:102A100006300B70491CBDF91C305B1CADF81C3036
:102A20008BE7BDF80A3003F008039BB2BBB1BDF9D8
:102A30000830002B15DD084600E00846202303700F
:102A4000411CBDF91C305B1CADF81C30BDF90830D1
:102A50005B1E1BB2ADF80830002BEED1FFE70A4633
:102A600000E00A46FEF7D4BDBDF91C00DDF800E029
:102A70000DB07047046400008C63000086B0CDF890
:102A800000E085B240F20001ADF8121000218DF88F
:102A900014108049097849B97F490022084640F25C
:102AA000000100F025FD01227A490A707B4909885E
:102AB0008D4200D2EAE07A4909888D4200D9E5E0EA
:102AC00076490988691A89B28A0092B2754C2168E0
:102AD00008318B1819788DF81010591C0978CAB272
:102AE000991C0978090289B25218D91C097809047D
:102AF00089B2521821460968891803916A490978F0
:102B0000002940F062806949B1F8008000236849DB
:102B100009888B4253D267490988ADF8121040F2F8
:102B2000000B00218DF80810D8B25FFA8BF99DF8E0
:102B300010209DF8081091423AD2B9F1000F0BD144
:102B4000039909788DF814100399491C039140F2F8
:102B500001095FFA89F201E05FFA89F29DF8141029
:102B60001140C9B2A1B1544909888DF804208DF8EB
:102B70000500ADF806808AB20FFA88F1BDF81200A0
:102B8000FDF780FFBDF806809DF805009DF8042044
:102B9000BDF81210491CADF8121051005FFA81FB0C
:102BA0009DF80810491C8DF808105FFA8BF9BEE7F4
:102BB00008F101081FFA88F8431CDBB2A7E7BDF84B
:102BC00012104A1C3B490A8060E03A49B1F8008083
:102BD0000023374909888B4253D234490988ADF81C
:102BE000121040F2000B00218DF80810D8B25FFAE5
:102BF0008BF99DF810209DF8081091423AD2B9F156
:102C0000000F0BD1039909788DF814100399491C12
:102C1000039140F201095FFA89F201E05FFA89F25B
:102C20009DF814101140C9B2A1B1234909888DF84B
:102C300004208DF80500ADF806808AB2BDF81210A8
:102C40000FFA88F0FDF71EFFBDF806809DF805001D
:102C50009DF80420BDF81210491EADF81210510065
:102C60005FFA81FB9DF80810491C8DF808105FFA87
:102C70008BF9BEE708F101081FFA88F8411CCBB2B6
:102C8000A7E7BDF812104A1E08490A80DDF800E0E7
:102C900006B07047D40000202E530000220100200F
:102CA00028010020240100202E0100202001002006
:102CB0002A0100201E0100202C010020C40AA4B219
:102CC000E4000C704409A4B2A4001470C4001C7089
:102CD0007047FFFF83B0CDF800E0ADF80400ADF819
:102CE00008100220174C2468A047BDF80420140ADD
:102CF000E0B2154C2468A0470320124C2468A0477A
:102D0000BDF80400104C2468A04706200D4C246830
:102D1000A047BDF80820140AE0B20B4C2468A04775
:102D20000720084C2468A047BDF80800064C24681A
:102D3000A0472220034C2468A047DDF800E003B040
:102D4000704700BF0C0100201001002081B0CDF8B9
:102D500000E0FDF7BBFFFEF717F9012149B29748E4
:102D60000160FEF711F9FEF70FF90021EA20FEF7E6
:102D7000E9F82021EB20FEF7E5F80C21EC20FEF726
:102D8000E1F8C421ED20FEF7DDF84021E820FEF750
:102D9000D9F83821E920FEF7D5F80121F120FEF716
:102DA000D1F81021F220FEF7CDF8A3212720FEF75D
:102DB000C9F800214020FEF7C5F800214120FEF7A8
:102DC000C1F801214220FEF7BDF813214320FEF790
:102DD000B9F810214420FEF7B5F826214520FEF76A
:102DE000B1F808214620FEF7ADF851214720FEF743
:102DF000A9F802214820FEF7A5F812214920FEF784
:102E0000A1F818214A20FEF79DF819214B20FEF762
:102E100099F814214C20FEF795F819215020FEF75F
:102E200091F82F215120FEF78DF82C215220FEF72A
:102E300089F83E215320FEF785F83F215420FEF704
:102E400081F83F215520FEF77DF82E215620FEF710
:102E500079F877215720FEF775F80B215820FEF7F7
:102E600071F806215920FEF76DF807215A20FEF768
:102E700069F80D215B20FEF765F81D215C20FEF747
:102E800061F8CC215D20FEF75DF84D4800785A28A6
:102E900010D100210420FEF755F8EF210520FEF7A0
:102EA00051F801210820FEF74DF83F210920FEF7D7
:102EB00049F80FE001210420FEF744F83F210520E6
:102EC000FEF740F800210820FEF73CF8EF2109202A
:102ED000FEF738F83A4800785A280DD1394800787A
:102EE000012804D1C8211620FEF72CF803E00821A0
:102EF0001620FEF727F80CE032480078012804D1AC
:102F0000A8211620FEF71EF803E068211620FEF720
:102F100019F81B211B20FEF715F801211A20FEF7D6
:102F200011F82F212420FEF70DF857212520FEF758
:102F300009F88D212320FEF705F836211820FEF729
:102F400001F801211920FDF7FDFF00210120FDF707
:102F5000F9FF88211F20FDF7F5FFFDF7A9FE80216D
:102F60001F20FDF7EFFFFDF7A3FE90211F20FDF7C7
:102F7000E9FFFDF79DFED0211F20FDF7E3FFFDF7E0
:102F800097FE05211720FDF7DDFF00213620FDF714
:102F9000D9FF38212820FDF7D5FFFDF725FDFDF7E6
:102FA00023FDFDF721FDFDF71FFD3C212820FDF746
:102FB000C9FFDDF800E001B0704700BF947F4E42CA
:102FC0001C010020D1000020024A1080024A11801A
:102FD000704700BF1E0100202001002081B0CDF805
:102FE00000E0FDF755FEDDF800E001B07047FFFF9F
:102FF00083B0CDF800E0ADF80400ADF808102A2049
:10300000134C2468A047BDF80420140AE0B2114C08
:103010002468A047BDF804000E4C2468A0472B206C
:103020000B4C2468A047BDF80820140AE0B2094CF4
:103030002468A047BDF80800064C2468A0472C204F
:10304000034C2468A047DDF800E003B0704700BFE0
:103050000C0100201001002083B0CDF800E0ADF895
:103060000400ADF808102A20144C2468A04701AAD7
:10307000521C1278D4B2E0B2114C2468A047BDF8BB
:1030800004000F4C2468A0472B200C4C2468A04758
:1030900002AA521C1278D4B2E0B2094C2468A047AC
:1030A000BDF80800064C2468A0472C20034C246877
:1030B000A047DDF800E003B0704700BF0C0100201E
:1030C0001001002081B0CDF800E085B28EB22A2038
:1030D000FDF700FC2A0AD0B2FDF7B2FBE8B2FDF71B
:1030E000AFFB0320FDF7ACFB1F20FDF7A9FB2B2056
:1030F000FDF7F0FB320AD0B2FDF7A2FBF0B2FDF70C
:103100009FFB0120FDF79CFBDF20FDF799FB2C20A6
:10311000FDF7E0FBDDF800E001B07047BDF80050BE
:10312000BDF80460064C2070064C2180064C2270CD
:10313000064C2370064C2580064C2680704700BF45
:10314000FD000020080100200201002003010020F2
:10315000040100200601002081B0CDF800E085B216
:10316000E90AC8B2C100CEB2F109C9B2012902D13F
:10317000F11DC8B200E0F0B2FDF762FB6909C8B208
:103180008100CEB2F109C9B2012902D1F11CC8B245
:1031900000E0F0B2FDF754FBE900CDB2E909C9B295
:1031A000012902D1E91DC8B200E0E8B2FDF748FBF1
:1031B000DDF800E001B07047024A1080024A117049
:1031C000704700BF00010020FC00002086B0CDF851
:1031D00000E00CB201B2A14204DD88B221B203B218
:1031E00018B200E020B2002902DA002109B204E09E
:1031F0002F4B1B88994200D355E0002800DA52E09B
:103200002B4B1B88984205D3294B1B885B1E18B299
:1032100003B200E003B2012015B20AB219B2254B85
:103220001B7898423FD8C4B204F001031BB213B913
:10323000644224B2FFE763101BB21EB2EB181BB24C
:10324000002B06DBAC1924B21B4B1B889C4200D21E
:1032500000E025E097B28F4222D8184B1C88AB19AA
:103260008DF80400ADF80810ADF80C20ADF8105042
:10327000ADF81260ADF81470A2B239B218B2FDF711
:1032800001FCBDF81470BDF91260BDF91050BDF914
:103290000C20BDF908109DF804007F1CBFB2DAE7CE
:1032A000401CC0B2BBE7DDF800E006B0704700BFCD
:1032B0000A010020FC000020FE0000200001002088
:1032C00081B0ADF80000012676B209490E6000AD6C
:1032D000691C0978074C217000235BB2064A136011
:1032E0001660297821701360166001B0704700BF26
:1032F0009C7F4C42FCD30340907F4E4281B0CDF87E
:1033000000E0FDF77DFBDDF800E001B0704781B023
:10331000002808BF1AE006B554BF0146D0F10001ED
:103320004FF09E0202D4521E4900FCD511F18001DB
:103330002CBF521C49004FEA512141EAC2510028DA
:103340004CBF41F000400846BDE8064001B0704760
:1033500083B0CDF800E0039A0498049002A904A871
:10336000001D0860019210460A460499FEF746F9CE
:10337000019A03B211180020087018B2DDF800E0BD
:1033800003B0704784B0CDF800E0ADF80C00002227
:1033900052B212490A6000210020114C2468A04753
:1033A00010490A881049098851430291002101916E
:1033B000029A0199914208D2BDF80C000B4C246886
:1033C000A0470199491C0191F2E7012252B2034939
:1033D0000A60DDF800E004B0704700BF987F4E42FD
:1033E00014010020FE0000200A0100201801002026
:1033F00081B0CDF800E0002204B440F24013012275
:10340000FCF7F8FF01B0DDF800E001B07047FFFF06
:1034100081B0CDF800E01D4A1288012A08D01C4B6B
:103420001C4A13601C4B1D4A13601D4B1D4A136040
:103430001D4A10801D4A1180884203D900231C4A6E
:10344000137002E05A231A4A1370012140F200005F
:10345000FFF7B2FE0023002208B404B400230022C8
:1034600000210020FFF75AFE02B000210020FFF7E4
:10347000ABFD00230F4A1370FFF768FC0E4B0F4A99
:103480001360DDF800E001B0704700BFD2000020FB
:103490001D0800000C010020690700001001002039
:1034A000C132000018010020FE0000200A010020A7
:1034B0001C0100201D010020D52C0000140100205B
:1034C00081B0014608460B460246401C117801B106
:1034D000FAE7C11A491E08B201B0704781B01CF862
:1034E000019B0BF8019BBBEB0A0FF8D101B07047B1
:1034F000114B1860831C1C78C31C1B781B029BB2E9
:10350000E4180E4B1C80031D1C78431D1B781B0206
:103510009BB2E4180A4B1C80831D1C78094B1C804D
:10352000094B1980094B1A700124094B1C700024A7
:10353000084B1C70704700BF2401002022010020AE
:10354000280100202A0100202C0100202E0100204B
:10355000D40000201D01002081B0CDF800E082469B
:103560000AF108010978A9B90AF108010978CCB271
:103570000AF1060109888BB20AF104010978CAB27E
:10358000DAF800100846D1B2002210B4FCF732FF7E
:1035900001B014E00AF108010978CCB20AF1060181
:1035A00009888BB20AF104010978CAB2DAF800106E
:1035B0000846D1B20F2210B4FCF71CFF01B0DDF8B1
:1035C00000E001B07047FFFF0048704780380100FD
:1035D00081B0CDF800E0034C2468A047DDF800E09E
:1035E00001B07047F400002083B0CDF800E00290F5
:1035F0001C4B1B88994200D32FE01B4B1B889A421F
:1036000000D32AE00020ADF8040088B291B2FFF7A1
:10361000DBFCBDF80400029B1B181B78EBB1134BBD
:103620001B7863B1029B1B181B78ADF8040098B29D
:10363000FDF756FEBDF80400411C89B20BE0029B69
:103640001B181B78ADF8040098B2FFF717FABDF805
:103650000400411C89B288B2DDE7DDF800E003B068
:10366000704700BFFE0000200A0100201D0100205D
:1036700083B0CDF800E01FFA80F91FFA81FA97B203
:103680001FFA83F817B91FFA89F048E0474502D1BD
:103690001FFA8AF043E002AE0DF1060501AC334695
:1036A0002A4621461FFA89F0FFF708FB0DF10906AB
:1036B0000DF107050DF1050433462A4621461FFA90
:1036C0008AF0FFF7FBFABEB29DF805509DF8044062
:1036D0002C1B24B2744394FBF8F59DF80440641944
:1036E000E0B2BEB29DF807509DF806402C1B24B2F4
:1036F000744394FBF8F59DF806406419E1B2BEB23C
:103700009DF809509DF808402C1B24B2744394FB8B
:10371000F8F59DF808406419E2B2FDF75FFFDDF8A7
:1037200000E003B07047FFFF88B0CDF800E0ADF8CF
:103730001800ADF81C101DB213B2A9B298B2FFF771
:1037400043FCBDF918409C4207D1BDF9182029B2AD
:10375000BDF91C00FFF73AFD29E1BDF91C40AC4260
:1037600007D1BDF91C2019B2BDF91800FDF71CFDE9
:103770001DE10024ADF81040BDF918401C1B24B217
:10378000ADF80640002C0ADABDF906406442ADF8F7
:103790000640BDF81040641EADF8104004E0BDF8CE
:1037A0001040641CADF810400024ADF81240BDF983
:1037B0001C402C1B24B2ADF80840002C0ADABDF9DD
:1037C00008406442ADF80840BDF81240641EADF8F0
:1037D000124004E0BDF81240641CADF81240002411
:1037E000ADF81440BDF90850BDF90640AC4245DAC9
:1037F000BDF81440641CADF81440BDF90600BDF9D5
:103800000840ADF80640ADF80800BDF91800BDF954
:103810001C40ADF81840ADF81C00BDF81000BDF814
:103820001240ADF81040ADF8120040F2010A5FFA04
:103830008AF0614C2478A0421FD8C1B201F0010483
:1038400024B214B9494209B2FFE74E1036B25B4CBC
:103850002588BDF91C40A4198DF80400AAB2BDF951
:10386000181020B2FDF70EF99DF8040000F1010ACE
:103870005FFA8AFA5FFA8AF0DBE726E040F2010A93
:103880005FFA8AF04C4C2478A0421ED8C1B201F0F5
:10389000010424B214B9494209B2FFE74E1036B20E
:1038A000464C2588BDF91C40A4198DF80400AAB225
:1038B00021B2BDF91800FDF7E5F89DF80400441C9D
:1038C0005FFA84FA5FFA8AF0DCE7BDF9064064002B
:1038D000ADF80E40BDF9084065002DB2ADF80C50B2
:1038E000BDF906402C1BADF80A40BDF90640641E28
:1038F00024B2ADF80640002C59DBBDF90A40002C7B
:103900000DDBBDF81250BDF91C406419ADF81C4028
:10391000BDF90E50BDF90A40641BADF80A40BDF870
:103920001050BDF918406419ADF81840BDF90C509D
:10393000BDF90A406419ADF80A4001201E4C2478F4
:10394000A04233D8C5B205F0010424B21CB96C42C0
:1039500025B229B200E029B2491009B2BDF81440DD
:103960007CB1164C2588BDF91C4064188DF8040004
:10397000AAB2BDF9181020B2FDF784F89DF8040032
:103980000EE00E4C2588BDF91C4064188DF804002B
:10399000AAB221B2BDF91800FDF774F89DF8040031
:1039A000441C5FFA84F85FFA88F0C7E79DE7DDF80A
:1039B00000E008B0704700BFFC00002000010020BC
:1039C00081B04FF000094BF8049BBBEB0A0FFAD112
:1039D00001B0704781B0CDF800E0F02140F2401016
:1039E000FFF716FD08212848FFF702FD012149B223
:1039F000264801604FF6FF70FFF7C4FC012140F23A
:103A00000000FFF7D9FBDC231BB240F22C1212B2EC
:103A1000DC2109B2142000B2FFF786FE2E231BB270
:103A200040F22C1212B22E2109B2142000B2FFF77C
:103A30007BFE00224FF600011548FFF759FD15489F
:103A40000E221E21FFF7D0FD002240F20001124895
:103A5000FFF74EFD1148DF221321FFF7C5FD0022BD
:103A60004FF600010C48FFF743FD0D48DF22C82147
:103A7000FFF7BAFD002240F200010A48FFF738FDC7
:103A8000DDF800E001B07047004000408C7F084244
:103A90002043000084000020A65B00009F0000205F
:103AA000BB0000202E53000082B0CDF800E00021C2
:103AB00049B215480190016042F67E47C0F2800786
:103AC0007F1EFDD100BF00BF00BF00BF00BF00BF11
:103AD0000020FFF77DFD0D4908700020FFF778FDFD
:103AE0000B4908700020FFF773FD0A490870002099
:103AF000FFF76EFD08490870012149B20198016085
:103B0000DDF800E002B07047807F4C4200000020EA
:103B100001000020020000200300002084B0CDF846
:103B200000E0002149B23F4801703F4800783F4A19
:103B3000039210801046B0F90000010209B2118012
:103B40003B48007841EA000000B21080801000B2CB
:103B50003849088000F0030000B20880FFF7D7FB67
:103B60004FF07A52FCF712FE02903349019108603F
:103B70000398B0F90000011109B23048018008B281
:103B8000FFF7C5FB029AFDF78DFA019908602C48F2
:103B900078225021FFF728FD2A48FFF791FC2149A0
:103BA00091F90010814204DD27488C225021FFF753
:103BB0001BFD2448FFF784FC1A4908701E48026860
:103BC00022480068FDF71BF940F2000000D00120F8
:103BD000C0B2F8B100224FF6FF711D48FFF788FC14
:103BE0007822AF211748FFF7FFFC134802681949F4
:103BF000144804B402B401B4FFF7AAFB03B00022D6
:103C000040F200011248FFF773FC7822AF210D4803
:103C1000FFF7EAFC084801680C480160DDF800E0A5
:103C200004B07047D500002000000020D60000201E
:103C300001000020D8000020DC000020DA00002075
:103C400004000020E000002011000020F00000200F
:103C50002E5300003F64000089B0CDF800E00790CB
:103C60001846ADF820200DF1100B0BF10B0ADFF810
:103C700018C1FFF733FCADF80410FFF76DFCBDF879
:103C8000041001256DB2414C2560414C206800258F
:103C90006DB2404C2560404C2160BDF820503F4C37
:103CA00025603F4D3F4C25603F4D404C2560FFF760
:103CB0008BFC40F2E83400FB04F5079CB5FBF4F400
:103CC000029429B9029C022C01DA0224029404E035
:103CD000029C0C2C01DA0C240294022109B2B1F1ED
:103CE000FF0F3BDA002212B210B2B0F5807F2DDA5E
:103CF0000DB2441C24B26543029C641B0394002C47
:103D000004DA039D4FF0FF346C43039410B9039C15
:103D1000059404E0039D059CAC4200DA16E0039D87
:103D2000049CAC4202DC039C04B105E0039C0494B7
:103D30008DF818108DF81900049C1CB901248DF819
:103D40001A4003E0441C22B210B2CEE79DF81A409C
:103D5000012C00D102E0891C09B2C0E79DF818507F
:103D6000134C25609DF8194025022DB20B4C246898
:103D700044EA0505094C256001256DB2054C256016
:103D8000DDF800E009B07047346400009020FC4387
:103D900008E10F4084001042048000400080004091
:103DA000910C0000F4000020DD2F0000F80000203E
:103DB0001080004088B0CDF800E0ADF81000ADF8FC
:103DC0001410ADF81820ADF81C308C4C2478650820
:103DD000EDB2BDF91040641B24B223B2002C03DA0B
:103DE00000231BB218B209E0854C2488A34204D3F7
:103DF000834C2488631E1BB2FFE718B27F4C2478E3
:103E0000641E24B265102DB2BDF91840641924B2A5
:103E100025B2002C03DA00252DB229B209E0784C36
:103E20002488A54204D3764C2488651E2DB2FFE772
:103E300029B2724C2478FCB1ADF80410ADF806003C
:103E4000BDF91420FDF7B0F9BDF90600BDF9041065
:103E5000BDF91C20FDF7A8F9BDF91020BDF91C1013
:103E6000BDF91400FFF7B2F9BDF91820BDF91C1017
:103E7000BDF91400FFF7AAF9624C2478002C00F079
:103E8000B880614C2488ADF80C405C4F3C788DF8CC
:103E90000E403C462478641C24B26610B5B2BDF9CD
:103EA00010406419ADF81040B5B2BDF91440641962
:103EB000ADF814403C462478A41C24B26610B5B278
:103EC000BDF91840641BADF81840B5B2BDF91C40EF
:103ED000641BADF81C404D4C2478002C00F063802E
:103EE0004B4C24787CBBBDF91440ADF80A40BDF9B9
:103EF0001C50BDF80A40AC4224D8BDF91450BDF99D
:103F00001C40671BBDF91450BDF80A40661B414CAC
:103F10002588414C2488BBB2B2B2A9B2A0B2FFF747
:103F2000A7FB0121FFF748F9BDF80A20BDF91810D9
:103F3000BDF91000FDF738F9BDF80A40641CADF872
:103F40000A40D4E72EE0BDF91040ADF80840BDF9B5
:103F50001850BDF80840AC4224D8BDF91050BDF946
:103F60001840671BBDF91050BDF80840661B294C6E
:103F70002588294C2488BBB2B2B2A9B2A0B2FFF7FF
:103F800077FB0121FFF718F9BDF80820BDF91C10D7
:103F9000BDF91400FFF71AF9BDF80840641CADF82C
:103FA0000840D4E71DE01D4C24880121A0B2FFF792
:103FB00003F9BDF91440ADF80A40BDF91C50BDF835
:103FC0000A40AC420DD8BDF80A20BDF91810BDF961
:103FD0001000FDF7E9F8BDF80A40641CADF80A408E
:103FE000EBE7BDF80C50084C25809DF80E50034CB3
:103FF0002570DDF800E008B0704700BFFC0000202D
:10400000FE000020FD000020000100200201002031
:104010000301002006010020040100200801002007
:1040200081B0012676B2214A1660214A1660214AE3
:10403000166000256DB2204C2560204A13686FF48D
:10404000707213401D4A136000F00F0293011B4A67
:10405000126842EA0303194A1360194A13686FF0A1
:1040600070021340164A1360164A1560144A13680A
:104070006FF0FC521340124A136001F03F02D30567
:104080000F4A126842EA03030D4A136026600E4B82
:104090001A6802B9FBE701235BB2044A13600023EC
:1040A0005BB2034A136001B0704700BF180BFC43BA
:1040B0002C0EFC437C0EFC43580CFC4360E00F408C
:1040C00070E00F40340EFC43180AFC4381B0FEE759
:1040D00001B07047FFFFFFFF00F0F2F802210E2051
:1040E000FFF79EFF02F0F0F902F0AEF9FFF772FC65
:1040F000002001B440F20013012201216248FCF7C4
:1041000079F901B0012149B2604801604FF0000126
:104110005F4801605F4850225021FFF765FA41F681
:10412000FE27C0F2B70700BF00BF7F1EFDD100BF52
:1041300000BF00BF00BF584B40F2070240F2000131
:104140005648FFF789FD564864225021FFF74CFA84
:1041500041F6FE27C0F2B7077F1EFDD100BF00BFAA
:1041600000BF00BF00BF00BF002240F200014D4869
:10417000FFF7BEF901214FF6FF70FFF71DF84FF66C
:10418000FF714FF6FF7002B401B4012300224FF615
:10419000FF710120FEF7C2FF02B0AA231BB2D22298
:1041A00012B2962109B2502000B2FFF703FEFFF7CA
:1041B0007BFC3D48007800F00100C0B2012853D1DB
:1041C00000224FF600013748FFF792F93748962250
:1041D0005021FFF709FA3648007800F00100C0B21C
:1041E000012810D1334896227D21FFF7FDF941F6D1
:1041F000FE27C0F2B70700BF00BF7F1EFDD100BF82
:1042000000BF00BF00BF2A48007800F00200C0B223
:10421000022810D1284896227D21FFF7E5F941F6C2
:10422000FE27C0F2B70700BF00BF7F1EFDD100BF51
:1042300000BF00BF00BF1E48007800F00400C0B2FD
:10424000042810D11D4896227D21FFF7CDF941F6B3
:10425000FE27C0F2B70700BF00BF7F1EFDD100BF21
:1042600000BF00BF00BF01E0FFF758FC41F6FE278A
:10427000C0F2B70700BF00BF7F1EFDD100BF00BF67
:1042800000BF00BF70E7FEE7FC630240807F4C4246
:10429000DC000020220000202864000040420F00C3
:1042A0003A0000202E5300000100002051000020A1
:1042B000030000205A000020680000207600002043
:1042C00081B0134A134B02F0010068B9124801682B
:1042D0006FF0010001401048016040F6D507C0F2C0
:1042E00002077F1EFDD100BF6FF0020002EA00014D
:1042F000094801600948036040F21007C0F2000756
:104300007F1EFDD100BF0448026001B0704700BFAE
:10431000903BC001006800C160E00F4070E00F40BA
:10432000000020007F00160001880100059E0100AA
:1043300006B401000ECA01000EF6010011220200AF
:104340000F6402000390020006A6020006BC0200F1
:1043500009D202000EFE0200032A030006400300F9
:1043600003560300086C03000E82030004AE030032
:104370000CC403000BF003000F1C04000C480400E5
:104380000E7404000CA004000DCC04000DF8040011
:1043900003240500033A05000D5005000D7C0500BF
:1043A0000DA805000DD40500120006000F420600FE
:1043B0000D6E06000C9A06000EC606000CF20600F2
:1043C0000C1E07000E4A07000C76070004A2070027
:1043D00009B807000DE407000A100800103C0800A7
:1043E0000D6808000F9408000DC0080010EC0800CC
:1043F0000E1809000E4409000B7009000D9C0900FD
:104400000EC8090015F409000D360A000C620A00F6
:104410000D8E0A0006BA0A0008D00A0005E60A0056
:104420000FFC0A000A280B0007540B000B6A0B0054
:104430000B960B000AC20B000BEE0B000A1A0C00C5
:1044400008460C000B5C0C000A880C0004B40C003D
:1044500004CA0C000BE00C00040C0D000E220D0031
:104460000A4E0D000C7A0D000BA60D000BD20D00AC
:1044700008FE0D000B140E0008400E000A560E0038
:104480000B820E0011AE0E000AF00E000A1C0F0087
:104490000A480F0008740F00068A0F0007A00F00DB
:1044A0000DB60F000BE20F0000000000000000003E
:1044B00000000000000000000000000000000000FC
:1044C00000001C1C1C1C1C1C1C1C1C1C1C001C1C80
:1044D00000000000000000000036363636360000CE
:1044E00000000000000000000000000000000000CC
:1044F0000000C01CC00C600C600EFC3FFC1F3203AF
:104500003003FE1FFF0F98018C01CC00CE0000008D
:104510000000000000000000000000008000F81F04
:10452000FC1F9E008E008E009E00FC0FF81F80383E
:1045300080388038803CFC1FFC0F800000000000A9
:1045400000000000000000000000000000003E0825
:10455000007F0C006304006306006302007F030019
:104560003E010080F90080FD01808C01C08C01407B
:104570008C0160FC0120F800000000000000000039
:10458000000000000000000000000000F803FC0331
:104590001E000E000E001E007C7E7C7E1E1C0E1C6B
:1045A0000E0E1E0FFC07F8010000000000000000C6
:1045B00000000000000606060606000000000000DD
:1045C0000000000000000000000038180C0C0C0671
:1045D00006060606060C0C0C183800000000000049
:1045E0000E0C1818183030303030301818180C0EE7
:1045F000000000000000000000003000B400FE01D8
:104600007800FE01B400300000000000000000004F
:10461000000000000000000000000000000000009A
:104620000000000000000000000080018001800107
:1046300080018001FC3FFC3F8001800180018001FE
:1046400080010000000000000000000000000000E9
:104650000000000000000000000006060402000048
:104660000000000000000000000000003F3F0000CC
:10467000000000000000000000000000000000003A
:10468000000000000000060600000000000000001E
:10469000C04040602030101808080C0406020203D5
:1046A00000000000000000000000F003FC0F1E1ED0
:1046B0000E1C0738073807380738073807380E1C2C
:1046C0001E1EFC0FF00300000000000000000000B0
:1046D00000000E0E0E0E0E0E0E0E0E0E0E0E0E0E16
:1046E000000000000000000000000000FF03FF07C2
:1046F000000E000E000E000EFC07FE030F00070068
:1047000007000700FF0FFF0F00000000000000007F
:104710000000000000000000FF01FF038007000709
:1047200000078007FE03FE038007000700078007DD
:10473000FF03FF0100000000000000000000000077
:1047400000000000001E001F801FC01FE01DF01CA5
:10475000781C3C1C1E1CFE7FFE7F001C001C001CE5
:104760000000000000000000000000000000000049
:10477000FF07FF070700070007000700FF03FF0709
:10478000000E000E000E000EFF07FF0300000000E9
:10479000000000000000000000000000E01FF81F03
:1047A0003C001C000E000E00FE0FFE1F0E380E38DF
:1047B0001C383C3CF81FE00700000000000000002F
:1047C0000000000000000000FF0FFF0F000F0007B7
:1047D0008003C003C001E000F000780038003C0016
:1047E0001E000F000000000000000000000000009C
:1047F00000000000FC07FE0F0F1E071C071C0F1E09
:10480000FE0FFE0F0F1E071C071C0F1EFE0FFC07DE
:104810000000000000000000000000000000000098
:10482000F801FE070F0F070E071C071CFE1FFC1FD9
:10483000001C001C000E000FFE07FE01000000001F
:104840000000000000000000000000000000000662
:104850000600000006060000000000000000000046
:10486000000000000006060000000606040200002A
:104870000000000000000000000000000000001028
:10488000001E800FE0037C001C007C00E003800F12
:10489000001E0010000000000000000000000000EA
:1048A0000000000000000000000000000000FC1FED
:1048B000FC1F00000000FC1FFC1F000000000000A7
:1048C00000000000000000000000000000000000E8
:1048D00000000000000004003C00F800E003001F9E
:1048E000001C001FE003F8003C0004000000000072
:1048F000000000000000000000000000FE07FE0FA6
:10490000001C001C001C001CF80FFC071E000E0001
:104910000E0000000E000E0000000000000000006D
:10492000000000000000000000000000801F00E008
:104930007F0070E0003880019CB703CC1703C618D5
:1049400003661803661803668C0166CC01E6FB005B
:10495000CC79001C000078E000F03F00C00F0000A0
:1049600000000000000000000000E001E003E003A0
:10497000F00330073807380E180EFC1FFC1F0E1C02
:104980000E38063807780000000000000000000024
:10499000000000000000FE07FE0F0E1C0E1C0E1C87
:1049A0000E1CFE0FFE0F0E1C0E1C0E1C0E1CFE0F0E
:1049B000FE070000000000000000000000000000F2
:1049C0000000F00FF80F1C001C000E000E000E007F
:1049D0000E000E000E000C001C00F80FF00F00007F
:1049E0000000000000000000000000000000FE07C2
:1049F000FE0F0E1C0E1C0E380E380E380E380E38F8
:104A00000E380E1C0E1CFE0FFE07000000000000FA
:104A100000000000000000000000F00FF80F1C0074
:104A20001C000E000E00FE0FFE0F0E000E000C000C
:104A30001C00F80FF00F0000000000000000000054
:104A4000000000000000F00FFC0F1C000E000E0024
:104A50000E00FE0FFE0F0E000E000E000E000E00E8
:104A60000E00000000000000000000000000000038
:104A70000000F03FF83F3C001C000E000E008E3F8F
:104A80008E3F0E380E381C383C38F83FF03F00009F
:104A900000000000000000000000000000000E0EFA
:104AA0000E0E0E0E0E0E0E0E0E0EFE0FFE0F0E0E44
:104AB0000E0E0E0E0E0E0E0E0E0E0000000000006A
:104AC0000000000000000E0E0E0E0E0E0E0E0E0E5A
:104AD0000E0E0E0E0000000000000000000000009E
:104AE000C001C001C001C001C001C001C001C001BE
:104AF000C001C001C001E001FF007F000000000014
:104B00000000000000000000000000000E1E0E0F5C
:104B10008E078E03CE01EE00FE00FE00EE01CE01F8
:104B20008E038E070E0F0E1E000000000000000016
:104B300000000000000000000E000E000E000E003D
:104B40000E000E000E000E000E000E000E001E00E5
:104B5000FC03F8030000000000000000000000005B
:104B6000000000001EF03EF83EF83EF87EFC7EFCA1
:104B70006EEC6EEEEEEECEE6CEE6CEE78EE38EE3A4
:104B80000000000000000000000000000000000025
:104B90001E1C1E1C3E1C7E1C7E1CEE1CCE1CCE1D34
:104BA0008E1D8E1F0E1F0E1F0E1E0E1E00000000FB
:104BB000000000000000000000000000E007F81FF7
:104BC0003C3C1C380E700E700E700E700E700E7025
:104BD0001C383C3CF81FE00700000000000000000B
:104BE0000000000000000000FE07FE0F0E1E0E1C5D
:104BF0000E1C0E1C0E1EFE0FFE070E000E000E00F9
:104C00000E000E0000000000000000000000000088
:104C100000000000E007F81F3C3C1C380E700E70CE
:104C20000E700E700E700E701C783C3CF83FE0F772
:104C30000000000000000000000000000000000074
:104C4000FE07FE0F0E1C0E1C0E1C0E1CFE0FFE0798
:104C50000E070E070E0E0E0E0E1C0E3C000000007E
:104C6000000000000000000000000000F81FFC1F12
:104C70001E000E000E000E00FC0FF81F003800385A
:104C800000380038FC1FFC0F00000000000000008E
:104C90000000000000000000FF07FF077000700028
:104CA0007000700070007000700070007000700084
:104CB0007000700000000000000000000000000014
:104CC000000000000E1C0E1C0E1C0E1C0E1C0E1CE8
:104CD0000E1C0E1C0E1C0E1C0E1C1E1EFC0FF003C8
:104CE00000000000000000000000000000000000C4
:104CF0000738071C071C0F1E0E0E1E0F1C071C0773
:104D0000B803B803F803F001F001E0000000000070
:104D10000000000000000000000000000000000093
:104D2000070E1C070F1C061F0E0E1F0E0E1B0E8CEF
:104D30003B069C3B079C39079C3107F8F103F8F1CF
:104D400003F8F103F0E001F0E001000000000000D2
:104D500000000000000000000000000000000F1E26
:104D60000E0F1C07BC03F803F001F000F001F00186
:104D7000B803BC071C070E0F0F1E00000000000048
:104D800000000000000000000000030F07078E0372
:104D90008E03DC01F800F8007000700070007000F5
:104DA00070007000700000000000000000000000B3
:104DB000000000000000FE1FFE1F001E000F800705
:104DC000C003E001E001F00078003C001E00FE1F7F
:104DD000FE1F0000000000000000000000003E3E3A
:104DE0000606060606060606060606063E3E0000FF
:104DF0000000000003020206040C08081010302016
:104E0000604040C00000000000001F1F1818181864
:104E100018181818181818181F1F00000000000094
:104E2000000000000007800FC01DE0387070000017
:104E30000000000000000000000000000000000072
:104E40000000000000000000000000000000000062
:104E50000000000000000000000000000000000052
:104E60000000000000000000000000000000000042
:104E70000000FF03000000001C3060000000000084
:104E80000000000000000000000000000000000022
:104E900000000000000000000000FC01FC0300070F
:104EA0000007FC07FE070E070E07FE07FC070000C1
:104EB00000000000000000000000000000000E00E4
:104EC0000E000E000E00FE01FE038E070E070E07F9
:104ED0000E070E078E03FE03FE0100000000000017
:104EE00000000000000000000000000000000000C2
:104EF0000000F003FC031C000E000E000E000E006C
:104F00001C00FC03F0030000000000000000000093
:104F10000000000000000007000700070007F80776
:104F2000FC071E070E070E070E070E071C07FC07DF
:104F3000F807000000000000000000000000000072
:104F400000000000000000000000F803FC030E0059
:104F50000E00FE03FE030E000E00FC03F80300002B
:104F600000000000000000000000F8FC1C1CFFFF17
:104F70001C1C1C1C1C1C1C1C000000000000000051
:104F8000000000000000000000000000F807FC071F
:104F90001C070E070E070E070E071E07FC07F80773
:104FA00000070007FC03FC010000000000000000F7
:104FB0000E000E000E000E00FE01FE038E038E0397
:104FC0008E038E038E038E038E038E03000000007B
:104FD0000000000000000000000E0E000E0E0E0E7D
:104FE0000E0E0E0E0E0E0000000000000000000E5F
:104FF0000E000E0E0E0E0E0E0E0E0E0E0E0E0707ED
:1050000000000000000000000E000E000E000E0068
:105010000E078E03CE01EE007E007E00EE00CE0174
:105020008E038E070000000000000000000000005A
:105030000E0E0E0E0E0E0E0E0E0E0E0E0E0E0000AC
:105040000000000000000000000000000000000060
:105050000000FE1FFE3FCE39CE39CE39CE39CE39D3
:10506000CE39CE39CE39000000000000000000002B
:105070000000000000000000000000000000FE0131
:10508000FE038E038E038E038E038E038E038E0328
:105090008E0300000000000000000000000000007F
:1050A00000000000000000000000F001FC071C07E9
:1050B0000E0E0E0E0E0E0E0E1C07FC07F001000069
:1050C00000000000000000000000000000000000E0
:1050D000000000000000FE01FE038E030E070E0715
:1050E0000E070E078E07FE03FE010E000E000E00D7
:1050F0000E000000000000000000000000000000A2
:105100000000F807FC071C070E070E070E070E0726
:105110001E07FC07F807000700070007000700004C
:105120000000000000007EFEEEEE0E0E0E0E0E0ED3
:10513000000000000000000000000000000000006F
:1051400000000000FC03FE030E000E00FE03FC073F
:1051500000070007FE07FE0300000000000000003B
:10516000000000001C1C1C1CFFFF1C1C1C1C1C1C29
:10517000FCF800000000000000000000000000003B
:105180000000000000008E038E038E038E038E034A
:105190008E038E038E03FE03F80300000000000060
:1051A00000000000000000000000000000000000FF
:1051B0000000070706038E038E039C01DC01D80064
:1051C000F800F8007000000000000000000000007F
:1051D00000000000000000000000000000000000CF
:1051E00000000000000083C301C7C701C6C700C696
:1051F000C600EEEE00EC6E006C6C007C7C00783C2F
:10520000003838000000000000000000000000002E
:10521000000000000000000000000000000000008E
:105220008703CE01FC00FC00780078007C00FC00C5
:10523000CE01870300000000000000000000000015
:105240000000000000000000000000008E038E033C
:105250008E038E038E038E038E038E03FE03FC03E8
:1052600080038003FE01FE0000000000000000003B
:105270000000000000000000FE03FE03C003E00188
:10528000F00078003C001E00FE03FE03000000005A
:105290000000000000000000E0F03030303030301E
:1052A0001C1C303030303030F0E000000030303046
:1052B00030303030303030303030303030303030EE
:1052C000000000000E1E1818181818187070181812
:1052D000181818181E0E0000000000000000000042
:1052E000000000000000000000000000F810FC1F9B
:1052F000040F00000000000000000000000000009B
:10530000000000000000000000000000FE07020492
:10531000020402040204020402040204020402045D
:10532000020402040204020402040204FE07000054
:1053300020007F001000018801000398010005A8EB
:10534000010008B8010007C801000DD801000AF8E3
:105350000100031802000528020005380200074872
:105360000200095802000378020005880200039831
:10537000020006A8020007B8020007C8020007D80A
:10538000020007E8020007F80200070803000718F8
:1053900003000728030007380300074803000358E9
:1053A000030003680300097803000998030009B8A3
:1053B000030006D8030009E80300090804000728D1
:1053C0000400073804000848040006580400066872
:1053D000040007780400088804000498040005A865
:1053E000040007B8040006C804000AD8040007F83F
:1053F00004000808050007180500082805000838FB
:1054000005000748050006580500076805000878EC
:1054100005000C88050008A8050008B8050006C8A6
:10542000050005D8050006E8050005F8050009088F
:105430000600082806000538060007480600075839
:10544000060006680600077806000788060005982B
:10545000060007A8060007B8060002C8060003D821
:10546000060006E8060002F806000A0807000728FA
:1054700007000738070007480700075807000568B6
:10548000070006780700058807000798070007A8A7
:1054900007000AB8070006D8070007E8070006F863
:1054A00007000608080004180800062808000A3843
:1054B00008000B5808000000000000000000000079
:1054C00000000000000000000000060606060606B8
:1054D0000006060000000000001B1B1B1B00000054
:1054E000000000000000000000004848FEFE247F8D
:1054F0007F1212000000000008083E4B0B0B3E68B4
:1055000068693E08080000000000000000001E005E
:1055100033023301B3005E0FA01990198819000FF0
:1055200000000000000000000000000000003C003F
:105530006600660066003C036603C601C600BC0345
:105540000000000000000000000606060600000043
:10555000000000000000000000180C0C0606060603
:105560000606060C0C18000000060C0C181818187B
:105570001818180C0C06000000185A3C5A180000A5
:10558000000000000000000000000000000000001B
:10559000200020002000FC0120002000200000004E
:1055A00000000000000000000000000000000000FB
:1055B00000060603030000000000000000001F00BA
:1055C00000000000000000000000000000000000DB
:1055D000000606000000000000202010100808044B
:1055E000040202010100000000003E636363636384
:1055F00063633E00000000000000181E1818181811
:1056000018187E000000000000003E616160301844
:105610000C067F000000000000003E6160603C60FE
:1056200060613E0000000000000030383432317FFD
:10563000303030000000000000007E06063E606052
:1056400060613E000000000000003C06033F636311
:1056500063633E000000000000007F6030301818D7
:105660000C0C0C000000000000003E6363633E630E
:1056700063633E000000000000003E636363637EDE
:1056800060301E0000000000000000000606000060
:1056900000060600000000000000000006060000F2
:1056A00000060603030000000000000000000000E8
:1056B00080016000180006000600180060008001EC
:1056C00000000000000000000000000000000000DA
:1056D0000000FE0100000000FE01000000000000CC
:1056E00000000000000000000000000000000000BA
:1056F00006001800600080018001600018000600AC
:10570000000000000000000000001E3130180C0CEA
:10571000000C0C00000000000000000000007C00F5
:10572000820079016D016D016D016D01D9000200EA
:10573000FC00000000000000000000000000380035
:1057400038006C006C00C600FE00C60083018301B7
:10575000000000000000000000003F6363633F633F
:1057600063633F000000000000003E434303030367
:1057700043433E000000000000003F63C3C3C3C3B7
:10578000C3633F000000000000003F0303031F034A
:1057900003033F000000000000003F0303031F035A
:1057A000030303000000000000003E434303736353
:1057B00063637E00000000000000C3C3C3C3FFC3D7
:1057C000C3C3C3000000000000000F060606060663
:1057D00006060F000000000000001E181818181818
:1057E00018180F0000000000000063331B0F070FA4
:1057F0001B336300000000000000030303030303E6
:1058000003033F00000000000000000000008703C9
:1058100087034D034D0339033903110311030103BA
:105820000000000000000000000047474D4D59599E
:10583000717161000000000000007EC3C3C3C3C3D8
:10584000C3C37E000000000000003F636363633F4A
:10585000030303000000000000007EC3C3C3C3C3F2
:10586000C3C37E60C000000000003F6363633F1B52
:105870003363C3000000000000003E4343033E606A
:1058800061613E000000000000003F0C0C0C0C0C9D
:105890000C0C0C0000000000000063636363636392
:1058A00063633E00000000000000C3C3C366663CA3
:1058B0003C18180000000000000000000000630C0D
:1058C000630C630CF30CF6069E079E070C030C0397
:1058D00000000000000000000000C3C3663C183C4C
:1058E00066C3C300000000000000C3C366663C1826
:1058F000181818000000000000003F3030180C0697
:1059000003033F0000000000001E06060606060610
:10591000060606061E00000000010102020404083B
:105920000810102020000000001E18181818181861
:10593000181818181E0000000000000000003000B9
:105940004800840002010000000000000000000088
:105950000000000000000000000000000000000047
:1059600000000000FF000000000C18000000000014
:105970000000000000000000000000003C62607EAB
:1059800063637E0000000000000303033B67636362
:1059900063633F0000000000000000001E230303BB
:1059A00003231E0000000000006060607E636363EC
:1059B00063736E0000000000000000003E63637F20
:1059C00003433E0000000000001C06060F0606060A
:1059D0000606060000000000000000007E6363630E
:1059E00063736E60613E0000000303033B67636303
:1059F000636363000000000000030300030303036C
:105A00000303030000000000000606000706060668
:105A1000060606060603000000030303331B0F07F8
:105A20000F1B330000000000000303030303030304
:105A3000030303000000000000000000000000005D
:105A40000000DF0133033303330333033303330332
:105A50000000000000000000000000003B676363DE
:105A60006363630000000000000000003E636363A6
:105A700063633E0000000000000000003B676363BA
:105A800063633F0303030000000000007E63636361
:105A900063736E6060600000000000001B1F030362
:105AA0000303030000000000000000001E23071E87
:105AB00038311E0000000000000006061F06060622
:105AC00006061C0000000000000000006363636322
:105AD00063736E0000000000000000006363633623
